:100000000C9475010C94BC010C94BC010C94BC01C3
:100010000C94BC010C94BC010C94BC010C94BC016C
:100020000C94BC010C94BC010C94161A0C94EA1AA2
:100030000C9436150C94BC010C94BC010C94BC01BE
:100040000C94BC010C94BC010C94BC010C94BC013C
:100050000C94BC010C948D150C94BC010C94BC0147
:100060000C94BC010C94BC010C94BC010C94BC011C
:100070000C94BC010C94BC010C94BC010C94BC010C
:100080000C94BC010C94BC010C94BC010C94BC01FC
:100090000C94BC010C94BC010C94BC010C94BC01EC
:1000A0000C94BC010C94BC010C94BC0129001400FC
:1000B0001A000800150017001C0018000C001200A0
:1000C00013002A002B0004001600070009000A0094
:1000D0000B000D000E000F0000002800E1000000E2
:1000E0001D001B0006001900050011001000295D0D
:1000F00052003900E000E3000000E20000002C00A4
:10010000000001510251500051004F0035001E0007
:100110001F002000210022002300240025002600CB
:1001200027003100390049004A004B002D002E0005
:100130002F003000330034000000010001000000F7
:100140004C004D004E000100360037003800010021
:100150000100010001000100000001000000010099
:100160000000010001000100010001003A003B0015
:100170003C003D003E003F00400041004200430083
:1001800044004500010001000100010001000100E0
:100190000100BE00BD0001000000010001000000E0
:1001A0004600470048000100A800AA00A90001007D
:1001B0000100010001000100000001000000005CDE
:1001C0000000010001000100010001000A035800C5
:1001D000740072006D00000012034C0065006F0097
:1001E0002000440065006E0067000000040309045D
:1001F00009023B00020100A0FA090400000103010A
:1002000001000921110100012240000705810308B6
:10021000000A090401000103000000092111010086
:1002200001226D000705820320000A12011001005F
:1002300000000829DE037301000102000105010925
:1002400080A101850319012AB700150126B7009581
:100250000175108100C0050C0901A1018504190177
:100260002AA002150126A002950175108100C00583
:10027000010906A1018505050719E029E7150025F3
:10028000019508750181020507190029EF15002560
:100290000195F0750181020508190129059505757B
:1002A000019102950175039101C005010906A101A3
:1002B000050719E029E71500250195087501810258
:1002C0009501750881010507190029FF150026FF12
:1002D0000095067508810005081901290595057521
:1002E000019102950175039101C011241FBECFEF4A
:1002F000DAE0DEBFCDBF04B603FE27C080918402E2
:1003000090918502A0918602B09187028730904B30
:10031000A740B04BD1F41092840210928502109243
:1003200086021092870214BE84B7877F84BF0FB6FF
:10033000F894A89580916000886180936000109285
:1003400060000FBEE0E0F8E3099511E0A0E0B1E045
:10035000ECE6FAE302C005900D92A039B107D9F797
:1003600022E0A0E9B1E001C01D92A438B207E1F794
:100370000E9450170C940C1D0C94000090E080E03B
:10038000089508950895FB01823E910561F0893238
:100390002DE5920761F0803E910519F482818093EA
:1003A000930181E00895828180939201FACF828146
:1003B000882339F080EE0E94570A8CE20E94570A87
:1003C000F0CF8CE20E949D0A80EE0E949D0AE9CF48
:1003D00081FF03C0519A599808955198FCCFCF934B
:1003E000C62F6091100270911102809112029091BB
:1003F00013020E94D102813031F1882321F0823032
:1004000039F1CF91089580919301882331F080E5EF
:10041000C1118FE4CF910C94DC0A80919201882362
:1004200069F08BE2C111F6CF81EE0E94570A8BE290
:100430000E94DC0A81EECF910C949D0A8BE4CC23C0
:1004400049F38EE4E7CF8AEACC2321F389EAE2CFAD
:100450008EEBCC23F9F28DEBDDCF81E008950C9487
:10046000C30108950C9431021F93CF93DF9300D002
:1004700000D00F92CDB7DEB749835A836B8330919A
:10048000B90189819A8131111DC06623B9F02223F7
:10049000A9F00E943612182F682F89819A810E9434
:1004A000E21169817A81812F0F900F900F900F9048
:1004B0000F90DF91CF911F910C942D030E940E128B
:1004C000182FEFCF0E94361269817A81EDCFFC019F
:1004D000262F408151816281738184810C94340282
:1004E000CF93DF93EC0160E00E946702BE01DF91D1
:1004F000CF910C9432020E947C13811102C00E94A1
:1005000020140C942F050C94310508950E944C0D75
:100510000E9485022FEF84E39CE0215080409040B0
:10052000E1F700C000000C94B1150F931F93CF9317
:10053000DF93EC0161E00E9467028C01BE010E9422
:100540002F02882329F1BE01C8010E9423078823B6
:10055000F9F0BE01C8010E9475078823C9F0BE01E9
:10056000C8010E949808882399F08A81882339F06D
:1005700001158CE5180751F00F3D1C4579F0CE01AF
:10058000DF91CF911F910F910C942D020E94860252
:1005900080E0DF91CF911F910F9108950E94201468
:1005A000F7CFCF92DF92EF92FF926C01EE24FF24FF
:1005B00020E0C114D104E104F10419F0C701B6012F
:1005C00020E1C72ED82EE92EFF24C114D104E10466
:1005D000F10419F0285FC701B6016B017C0154E0FA
:1005E000F694E794D794C7945A95D1F7C114D104DF
:1005F000E104F10419F02C5FC701B6016B017C0125
:1006000042E0F694E794D794C7944A95D1F7C11481
:10061000D104E104F10419F02E5FC701B6019695EB
:10062000879577956795672B682B692B09F02F5F66
:10063000822FFF90EF90DF90CF9008950C94E80107
:1006400081E008950C942003CF93C82F0E941E03CD
:100650008C2FCF910C9422030895972F70E02CE0FB
:10066000929F600D711D1124FB0190E3899FE00DA5
:10067000F11D1124EE0FFF1FE455FF4F859194915A
:100680000895FC01EE0FFF1FE453FE4F85919491F6
:100690000895CF93DF930E942D030E945504EC012F
:1006A000811520E5920708F041C0811530E49307D9
:1006B00008F0B4C0803E910518F5803C910508F023
:1006C0009DC0883A910570F4853A910508F08EC076
:1006D00081309105F9F00097E9F00497D8F4D0E063
:1006E000C0E018C08F3B9105D0F7C85AD0E0CC0FBE
:1006F000DD1FC35FDE4F0990D881C02DD4640AC0CE
:100700008115904258F4C11581E0D80718F4C83E0D
:10071000D10528F7CE01DF91CF910895C11590E35F
:10072000D90708F071C0CE019F706AC0811525E518
:10073000920758F5811534E5930708F09EC081159E
:1007400042E5940750F4C11581E5D80708F469C063
:10075000DC2FCC27C16FD06ADDCF982F9695969568
:100760009E0123703327C115D34508F077C0C1E03F
:10077000D0E002C0CC0FDD1F2A95E2F720E2929F65
:10078000C0011124C82BD92B67C0C11589E5D80732
:10079000A8F4C11598E5D90708F074C0C11526E57D
:1007A000D20708F09CCF8C2F0E94EC04C82FD0E019
:1007B000DC2FCC27CC27DF71D062ACCFC1153AE556
:1007C000D30708F464C0CE0190568115904208F01A
:1007D00086CF8D2F8F710E94EC0490E0982F882790
:1007E00088279F719C012C2BE901E6CFC55AD0E0E8
:1007F000C55CDE4FC881D0E0D0648CCF805C9109AD
:100800000E944103EC0186CFCE019927D3FF03C09C
:10081000EC01D86C7FCFEC01D06C7CCFDF70D06A5C
:1008200079CFCE01E4E096958795EA95E1F783705C
:100830002C2F26952695237090E2299F9001112454
:10084000382B8C2F8370C1E0D0E002C0CC0FDD1FAD
:100850008A95E2F7C22BD32BDC685CCFC1E0D0E0F5
:1008600002C0CC0FDD1F2A95E2F730E2939FC00152
:100870001124C82BD92BDA684DCFD82FCC27C46FC1
:10088000D06A48CFDC2FCC27C06FD06A43CF8C2FE3
:100890008F700E94EC0434E0D695C7953A95E1F745
:1008A000CF709C2FEC01D06935CF82389105B1F122
:1008B000B0F48133910509F475C048F4893291058B
:1008C00009F469C08A32910509F473C0089585332B
:1008D000910509F459C08933910501F10895833ECA
:1008E0009105A9F138F4803E9105F9F0823E910519
:1008F00049F10895863E9105A9F1873E9105C9F118
:10090000843E910519F52091760221FF1FC0809148
:10091000750284FD14C087EE90E008952091750261
:100920002370A1F080EE90E008952091750220FDE3
:1009300047C03091760230FF09C024FF44C090E0E8
:1009400080E004C02091750222FDF7CF0895209128
:10095000750222FD3BC03091760230FDE3CF24FFCB
:10096000F5CFEDCF2091750223FFF0CF24FDE7CF27
:10097000D2CF2091750223FD2CC03091760231FF39
:10098000EECF84EE90E008952091750225FFDECF32
:1009900089E290E008952091750225FFD7CF85E385
:1009A00090E008952091750226FFD0CF8AE290E072
:1009B00008952091750226FFC9CF81E390E0089544
:1009C00089E390E0089583EE90E0089582EE90E050
:1009D000089586EE90E008959091750292FF06C00A
:1009E000282F28712830F9F4877F846093FF06C090
:1009F000282F28712831F1F4877E846120917602B6
:100A000020FF06C0382F38713830D9F4877F8160D5
:100A100021FF06C0282F28712831D1F4877E8161FB
:100A200094FD877E0895282F24712430F9F68B7F5A
:100A30008860DCCF282F2471243101F78B7E8861F8
:100A4000DDCF382F3171313019F78E7F8860E0CFDC
:100A5000282F2171213121F78E7E8861E1CF0C94FE
:100A6000C1010C94C201E82FF0E0EE0FFF1FE7591F
:100A7000FD4F808191810895089580EA8A95F1F76C
:100A8000089500C008950C943D05F894E82FE29570
:100A9000EF70F0E031A1282F2F7081E090E001C0CD
:100AA000880F2A95EAF7982F9095932391A392A106
:100AB000892B82A378940895CF93DF9382E90E94D3
:100AC000450583E90E94450581EF0E94450587E3BE
:100AD0000E944505CEE3D1E089910E94450581E061
:100AE000CA34D807C9F710926202109261021092BC
:100AF0006A021092690210926402109263021092CC
:100B00006C0210926B0210926602109265021092B3
:100B10006E0210926D02109268021092670210929B
:100B2000700210926F0284E00E941E06DF91CF9146
:100B30000C947B02AF92BF92CF92DF92EF92FF9222
:100B40000F931F93CF93DF930AE411E0C1E6D2E045
:100B5000C12CD12CEE24E394F12CF80181918F016A
:100B6000F894E82FE295EF70F0E021A18F70A701D3
:100B700002C0440F551F8A95E2F7CA01922F982BA5
:100B800091A392A18095892382A378940E94410524
:100B9000EEE3F1E030E020E0B12CA12C4191A42F54
:100BA000A295AF70B0E090968C9190E04F7002C02B
:100BB000959587954A95E2F780FD3BC0C701022EC7
:100BC00002C0880F991F0A94E2F7A82AB92A2F5F5A
:100BD0003F4F2C30310511F7F801319780810E9489
:100BE000450553E0C5120E94430588819981A816E6
:100BF000B90611F1B982A88281E0D82AC39422965D
:100C000084E0C812AACF2D2D44E069E672E081E6A7
:100C100092E00E941F060E9483028D2DDF91CF91EA
:100C20001F910F91FF90EF90DF90CF90BF90AF900A
:100C3000089590E080E0C9CF80E0DFCF0895FF9273
:100C40000F931F93CF93DF93F82E092F162FD72FD3
:100C5000C42F222349F081E0809396010E946615FB
:100C60009093950180939401809196018823A1F03F
:100C700080919401909195010E947E15069760F0F5
:100C8000EF2DF02FA12FBD2F90E080E0D0E08C174A
:100C90009D0744F010929601DF91CF911F910F9123
:100CA000FF900895219131912D933D930196EFCFBF
:100CB0000C94EF0157985F9A56985E9A89B190E02C
:100CC000880F892F881F990B4E9905C020E0822B31
:100CD00080939901089522E0FACFE0919901EE0FF7
:100CE000EE0FE093990189B190E0880F892F881F5A
:100CF000990B49B146FB222720F946FF02C022E0AA
:100D000030E0822BE82BE0939901EF70F0E0E25B9A
:100D1000FE4F808190919801890F8093980120E087
:100D2000843054F0809197018F5F8093970160E049
:100D300080E00E94580621E0809198018D3F54F494
:100D40008091970181508093970161E080E00E943B
:100D5000580621E080919801082E000C990B64E060
:100D600070E00E949C1C80939801822F08950F933D
:100D70001F93CF93DF93C42FD22FFC01828188234E
:100D8000C9F040939C010E94661590939B0180934B
:100D90009A0180E28C0F883008F050C0C77081E063
:100DA00001C0880FCA95EAF7DF91CF911F910F918B
:100DB0000C94E40A10919C01141335C080919A019F
:100DC00090919B010E947E15883C910560F5C0E2E0
:100DD000CD0F1D17B9F080E2810F883040F41770F5
:100DE00081E001C0880F1A95EAF70E94EB0AC8302B
:100DF00048F481E09D2F977001C0880F9A95EAF71B
:100E00000E94E40A802F0E94DC0AC830B8F4D77030
:100E100081E001C0880FDA95EAF7DF91CF911F9149
:100E20000F910C94EB0A80E28C0F883038F4C77075
:100E300081E001C0880FCA95EAF7EFCFDF91CF912B
:100E40001F910F9108950F939C01CB01243F4CE516
:100E5000340759F1A8F4293DFCE53F0701F12A3D8B
:100E60004CE53407D1F1283D3C4591F406E221EEF2
:100E700041EE68ED7CE50E94B70680E00F91089591
:100E8000263FFCE53F07E9F0B0F0273F3C45F9F08D
:100E9000FC018281882339F110929C01EFCF07E297
:100EA00025EE45EE69ED7CE5E6CF06E221EE40EE6B
:100EB00064EF7CE5E0CF07E225EE44EE65EF7CE5EC
:100EC000DACF06E221EE42EE66EF7CE5D4CF07E210
:100ED00025EE46EE67EF7CE5CECF08E221E045EE59
:100EE0006AED7CE5C8CF81E0C9CFCF93DF93EC01F9
:100EF000FB018281882309F419C1C230FCE5DF07B8
:100F0000C0F1C6319CE5D90730F09E012B5F3C450E
:100F10002930310570F50E948F13909376028093EB
:100F20007502C031ECE5DE0709F4CFC008F05BC004
:100F3000C8308CE5D80709F4B6C088F5C430ECE5B4
:100F4000DE0709F4A8C0C0F4C2308CE5D80709F464
:100F50009CC0809175028260C330DC4509F498C062
:100F600080917502909176020E949D130E944C0D13
:100F700080E0DF91CF910895809175028061C63045
:100F8000ECE5DE0709F484C0809175028860C73003
:100F9000DC4508F47DC080917502806279C0CC3058
:100FA0008CE5D80709F489C070F4809175028C60D3
:100FB000CA30ECE5DE0709F46BC008F478C0809114
:100FC00075028E7F65C0CE308CE5D80709F479C0F4
:100FD000809175028B7FCF30DC4508F459C0809139
:100FE00075028F7E55C0CC3FECE5DE0709F457C093
:100FF00030F5C3318CE5D80709F46FC078F4C131FE
:10100000ECE5DE0709F465C0C231DC4509F0A8CF84
:101010000E944C0D809175028F773AC0C5318CE5E6
:10102000D80709F462C008F476C080917602816026
:10103000CB3FDC4509F094CF8093760291CFC11568
:10104000FDE5DF0709F44DC088F4809176028D7FBD
:10105000CE3F9CE5D90781F3809176028E7FCF3F0A
:10106000DC4550F3809176028360E6CFC230FDE527
:10107000DF0709F459C008F444C080E0C330DD45FF
:1010800009F06ECF0E9422146BCF809175028160AF
:101090008093750265CF809175028460F9CF80914D
:1010A00076028260C9CF809175028064F1CF0E9480
:1010B0004C0D809175028068EBCF809175028D7F19
:1010C000E7CF80917502877FE3CF809175028F7D96
:1010D000DFCF809175028F7BDBCF80917502837F9C
:1010E000D7CF809176028C7FA7CF8091750282FB4B
:1010F000992790F921E0922790FB82F990FB83F9E0
:10110000C7CF80917602982F909591708E7F892B12
:1011100090FB81F991CF0E944C0D90917502892F1F
:1011200097FB87F98058B4CF81E0ACCF81E021CF25
:10113000CF93DF93EB0186319C4511F50E94CB12D2
:101140009A81992399F08A7A91E009F490E090933A
:101150009D01811109C089E20E94A6120E94171305
:1011600080E0DF91CF91089585E3F6CF80919D01D6
:10117000811104C089E20E94AD12F0CF85E3FBCF5C
:1011800081E0EFCF9093A3018093A2010895E091B5
:10119000A201F091A301309721F00190F081E02DA0
:1011A000099480E00895E091A201F091A3013097A5
:1011B00099F020910C01222359F02091750227FF0C
:1011C00007C0DC012C9111962C93119725E02C93EC
:1011D0000280F381E02D099408952091A0013091BF
:1011E000A1012817390771F09093A1018093A00104
:1011F000E091A201F091A301309721F00680F781E0
:10120000E02D0994089520919E0130919F012817A7
:10121000390771F090939F0180939E01E091A201A4
:10122000F091A301309721F00084F185E02D09941D
:1012300008950E9472156093B5017093B601809372
:10124000B7019093B8016093B1017093B20180939C
:10125000B3019093B40108950E9472156093B50193
:101260007093B6018093B7019093B8016093AD017C
:101270007093AE018093AF019093B001089585B74C
:10128000806885BF85B7806885BF089508950895F3
:101290000C94460908950C944A090E943F098AE774
:1012A00093E10E94D5150E9447090C94480981E0FA
:1012B00008950C945709089508950E945D150E94A1
:1012C0005C050E94DA150E945A060C944B098F9215
:1012D0009F92AF92BF92CF92DF92EF92FF920F93C5
:1012E0001F93CF93DF93CDB7DEB72A970FB6F8944D
:1012F000DEBF0FBECDBF0E945B090E945C090E9449
:101300009A0581110E94190955EA852E51E0952E02
:1013100010E000E0A02E802F0E9433056C01F40144
:10132000E190F1904F01E816F90609F45FC0809151
:101330003D0281FD0E943C05C7018C259D25B12CF5
:10134000EE24E394F12C9C012E213F21232B09F460
:1013500047C00E9459098823A9F0BE82AF82CE20DF
:10136000DF2081E0CD2809F480E088870E9466159F
:101370008160782F9A8789874E815F8168858A8509
:101380000E94200A000F111FF801EB55FE4F8081CB
:101390009181E826F926F182E0820E946D06811192
:1013A0000E942C090E94C7089091A4018917A9F1F5
:1013B0000E94C7088093A4012A960FB6F894DEBF56
:1013C0000FBECDBFDF91CF911F910F91FF90EF9096
:1013D000DF90CF90BF90AF909F908F900C9424039C
:1013E000B394EE0CFF1CFCE0BF12ADCF0F5F1F4F9C
:1013F0000430110509F08ECF8FEF89838A831B8219
:101400000E9466158160782F9D838C8349815A8163
:101410006B818D810E94200AC0CF2A960FB6F89466
:10142000DEBF0FBECDBFDF91CF911F910F91FF9017
:10143000EF90DF90CF90BF90AF909F908F900895E6
:10144000DF92EF92FF920F931F93CF93DF93CDB76D
:10145000DEB72B970FB6F894DEBF0FBECDBF7A87ED
:101460008B87F42E052F162FE72ED82E61110E94A0
:10147000EB121E821D827E2DEC82DD824F2D502FBD
:10148000612F8D2D9E812B960FB6F894DEBF0FBE77
:10149000CDBFDF91CF911F910F91FF90EF90DF9023
:1014A0000C94C20FFC01808191810C947812CF932F
:1014B000C82F882309F43FC08CEF8C0F813AA0F429
:1014C0006C2F80910001909101010E943B148823B0
:1014D00029F08C2F0E94AD120E9417138C2F0E94AE
:1014E000A612CF910C94171380E28C0F883048F429
:1014F000C77081E001C0880FCA95EAF70E94CE123A
:10150000F0CFEBE5EC0FE33040F4F0E0E457FE4FB2
:10151000808190E0CF910C94ED08C85AC73158F4FF
:10152000EC2FF0E0EE0FFF1FE25AFE4F8081918119
:10153000CF910C940309CF910895882329F19CEF52
:10154000980F913A20F40E94AD120C94171390E278
:10155000980F983050F4877091E001C0990F8A95E8
:10156000EAF7892F0E94D412F0CF9BE5980F9330B1
:1015700020F490E080E00C94ED08885A873120F444
:1015800090E080E00C94030908951F93CF93DF93BC
:10159000182FEB010E94570A209731F4812FDF9119
:1015A000CF911F910C949D0A8FE99FE00197F1F76D
:1015B00000C000002197F0CF64E670E0893311F499
:1015C00060E570E00C94C50A882321F00E94CE12D9
:1015D0000C9417130895882321F00E94D4120C94C0
:1015E00017130895BF92CF92DF92EF92FF920F935D
:1015F0001F93CF93DF936C01D62FC72FFC0112816D
:10160000058102950F700E94C412E82E8823A1F074
:10161000E12E112389F08C2F807F803429F080E225
:101620008D0FE12C883040F082E00E9462130E940E
:10163000C41291E0E82EE926BC2EB2949FE0B922B4
:10164000EB2DF0E0E25FF24E0C94B01C0C2F0F700B
:10165000C07F11F00295007F1123A9F0002359F0FB
:1016600080E28D0F883010F0D11109C0802F0E94C8
:10167000CE120E9417138D2F0E94570A14C0802F7C
:101680000E94DE12F6CF8D2F0E949D0A002359F092
:1016900080E28D0F883010F0D1112CC0802F0E9475
:1016A000D4120E9417132B2D2850330B24303105F0
:1016B00020F40E94C7080E942403EE2009F491C17F
:1016C0000E94C01280FD8DC1F60112820E94BA12E2
:1016D0000E944611C6010E94120D0E94BA12DF91AB
:1016E000CF911F910F91FF90EF90DF90CF90BF901F
:1016F0000C946711802F0E94E412D3CFFC2FFF704F
:10170000FF2EC07FC03219F0F29480EFF822DD2363
:1017100069F0D13049F1112391F1002351F1F60123
:10172000858180FFA8CF8F70858323C0112381F02E
:10173000011106C00E94FE128F290E94E40AB3CF55
:101740000130C1F70E94FE128F290E940413ABCF13
:10175000011106C00E940D138F2D0E94EB0AA3CF2A
:10176000013009F4A0CFF6CF112329F0063008F09C
:101770009ACF8F2DE2CF053008F095CFEDCF002323
:1017800059F3D93309F015C1FFEF27EE33E0F150DB
:1017900020403040E1F700C000008D2F0E949D0ADC
:1017A00082CF8C2F86958695837069F0813009F001
:1017B0007ACF8D2F9C2F9370111102C090E080E0A2
:1017C0000E94030970CF8D2F9C2F9370111102C0BE
:1017D00090E080E00E94ED0866CF8C2F837009F0C6
:1017E00041C0111160CF4D2F429546954770440F6F
:1017F000440F0D2F0F7010E030E020E0042E04C0E5
:10180000000F111F221F331F0A94D2F760E070E00F
:10181000CB01D4FF0FC06FE070E080E090E004C027
:10182000660F771F881F991F4A95D2F760957095AC
:1018300080959095C695C695C370602B712B822BB1
:10184000932BC23049F058F4C13019F00E94F810BF
:101850002ACF0E94E61027CF0E940A1124CF0E94AF
:10186000E41021CF8695112311F08C2F81708823ED
:1018700009F419CF4D2F429546954770440F440FF8
:101880000D2F0F7010E030E020E0042E04C0000F98
:10189000111F221F331F0A94D2F760E070E0CB01C2
:1018A000D4FF0FC06FE070E080E090E004C0660FEE
:1018B000771F881F991F4A95D2F76095709580957C
:1018C0009095C695C695C370602B712B822B932B78
:1018D000C23049F058F4C13019F00E94BD11E3CE76
:1018E0000E94AB11E0CE0E94CF11DDCE0E942011EC
:1018F000DACECF70112329F08C2F0E9446118D2F44
:101900001CCF8D2F0E94EB0A8C2F0E946711CBCE2B
:10191000D23F89F160F4D03FC9F0D13F29F11123C2
:1019200009F442C00111A7CE8C2F8F7121C0D33F83
:1019300039F1D43FA1F7112369F1CF718C2F0E94A7
:10194000461163E08C2F0E944D13ADCE112341F060
:10195000053008F0A8CE8C2F8F710E948A11A3CE7B
:10196000063008F0A0CEF7CF8C2F8F71112369F2CB
:101970000E94461198CE8C2F8F711123C9F3C5CFC9
:10198000112329F08C2F8F710E9431118CCE0E946F
:101990002C1189CE81E00E946213023008F483CEBC
:1019A00082E00E9462137FCE0111EBCE8C2F8F71EB
:1019B000ACCF8FEF91EEE4E081509040E040E1F752
:1019C000EACE4C2F4F706D2FC6010E94BE010E94BF
:1019D0005C1069CE4C2F4F706D2FC6010E942C03F6
:1019E00062CEDF91CF911F910F91FF90EF90DF902A
:1019F000CF90BF9008950F931F93CF93DF93EC0187
:101A0000688179818A810E9482128C010E94E11191
:101A10000E94E310B801CE01DF91CF911F910F9189
:101A20000C94F20ACF93DF93EC018B819C81892B7C
:101A300029F08881998189238F3F59F4DF91CF91D3
:101A40000895CE010E94FB0CCE01DF91CF910C9442
:101A50007002CE010E9495028111F3CF0E94C41240
:101A6000882361F38A81882349F382E0DF91CF9153
:101A70000C94621390E080E00E94ED0890E080E01A
:101A80000E9403090E94EB120E94FB120C94171390
:101A90000E94B4120C943A0D0E94DB120C94480D73
:101AA000E92FE295EF70E250EE3070F4F0E0E25E84
:101AB000F24E0C94B01C803F19F020F4883E20F4C4
:101AC00081E00895843FE1F380E00895883EC0F30B
:101AD000813FD1F7F5CF93FB882780F908950E94C5
:101AE00078120C94500DCF93DF9300D000D00F925A
:101AF000CDB7DEB70F900F900F900F900F90DF9142
:101B0000CF910895CF93DF9300D000D000D0CDB710
:101B1000DEB726960FB6F894DEBF0FBECDBFDF91BD
:101B2000CF9108951F93CF93DF93C091BA0116E030
:101B30008091BB018C1304C0DF91CF911F91089558
:101B4000D0E01C9FF0011D9FF00D1124E454FE4FC6
:101B50004081518162817381848195810E94820DCF
:101B60002196C770E5CF4091EC015091ED01609155
:101B7000EE017091EF018091F0019091F1010C94D0
:101B8000820D1F93CF93DF938091F101807FA9F4A1
:101B90008091EE01882389F08091BA01C091BB0148
:101BA0006091EC017091ED01A091EF01B091F00115
:101BB000D62FD72316E0C81304C0DF91CF911F9111
:101BC000089590E0109711F0DF3F19F401968770A7
:101BD000F2CF189F9001199F300D1124F901E454A0
:101BE000FE4F41814713F2CF40814613EFCF428130
:101BF0004111ECCF438154814A1B5B0B483C51059A
:101C000028F78091F1018F7080618093F101F901D3
:101C1000EF53FE4F80818F70806180838CEE91E066
:101C20000E94120DDF91CF911F910C94920DAF92F3
:101C3000BF92CF92DF92EF92FF920F931F93CF93B9
:101C4000DF93CDB7DEB761970FB6F894DEBF0FBE56
:101C5000CDBF8C0185E0F801DE011D9601900D924B
:101C60008A95E1F7F80140815181E2808CEEC82E1F
:101C700081E0D82E6091EF017091F001611571053E
:101C800009F461C19091EC012091ED01892F82232B
:101C90008F3F09F458C1A380B480F090EE01F501A4
:101CA000E61BF70BFF2009F4FCC08091F101382FEF
:101CB000307FE83CF10508F0B2C0311179C0FE2C4C
:101CC000251323C0941321C0E1101FC08F708061C1
:101CD0008093F1010E94B30DC6010E94120D809104
:101CE000F101F80185838F2D61960FB6F894DEBF60
:101CF0000FBECDBFDF91CF911F910F91FF90EF905D
:101D0000DF90CF90BF90AF900895AB2829F0842F3B
:101D100085238F3F09F033C180E0F82FF170DF2E6B
:101D200080FF3CC08091BA012091BB0136E0821354
:101D300015C04D875E878D859E850E947812292F5C
:101D400022952F702230F0F0243018F59F70F1F0BA
:101D5000F8019581907FD1F4D12C1EC090E0389F7E
:101D6000F001399FF00D1124E454FE4F6181651399
:101D700006C06081641303C062816E110FC00196BA
:101D80008770D5CF9F7011F0882331F3805E883043
:101D900018F3C8010E94120DFD2CA5CFEE2009F406
:101DA000A2CF8091F10181608093F101F12C9BCF52
:101DB000251306C0941304C0F801EE2009F48DC069
:101DC0004D875E878D859E850E946F0D882319F152
:101DD000EE2009F18091F101803270F02091EC0148
:101DE0003091ED0138872F831986BB86AA868C87B0
:101DF000CE0107960E94120D86E0F801ACEEB1E02C
:101E000001900D928A95E1F70E94C10D0E94B30DD9
:101E1000FF24F39468CFC8010E94120DF9CF31114D
:101E200013C07A2DB98AA88A6E2D89890E94730DF4
:101E30008CEE91E00E94120D86E0F60111928A95D7
:101E4000E9F70E94B30DB2CF25130FC094130DC054
:101E5000E1100BC0F8018583C8010E94120D86E0D5
:101E6000F60111928A95E9F73ECF4D875E878D8501
:101E70009E850E946F0D882371F2EE2061F28091A1
:101E8000F101803208F4B8CF2091EC013091ED01DE
:101E90003A8329831B82BD82AC828E83CE01019658
:101EA000A9CFE83CF10508F041C0FE2CEE2009F472
:101EB000B2CF25132AC0941328C08091F10180FD70
:101EC0001BC0982F907FC1F0F8018583903F31F0BF
:101ED000982F907F905F8F70892B8583C8010E9417
:101EE000120D86E0F801ACEEB1E001900D928A95FA
:101EF000E1F70E94B30DF7CE86E0F801ACEEB1E059
:101F000001900D928A95E1F7EECE4D875E878D8523
:101F10009E850E946F0D81116FCF8091F1018160CC
:101F20008093F101C8010E94120DDDCE7A2DB98A8D
:101F3000A88A6E2D89890E94730D86E0F6011192A0
:101F40008A95E9F7D6CFEE2009F465CF4D875E87F5
:101F50008D859E850E946F0DF82E882309F45BCF36
:101F600086E0F801ACEEB1E001900D928A95E1F7C0
:101F70008CEE91E00E94520A0E94C10DBACF81E01E
:101F80008E25CBCE1F93CF93DF93CDB7DEB72C97A3
:101F90000FB6F894DEBF0FBECDBF4F835887698759
:101FA0007A878B879C87CE0107960E94170E88231D
:101FB00069F08A859B85892B39F04F815885842F5C
:101FC00085238F3F09F071C016E05FC086E0FE01F7
:101FD0003796DE01119601900D928A95E1F78A8578
:101FE0009B85892B89F38F81988589238F3F61F3A6
:101FF0002091BB0130E0C90101968770992740917B
:10200000BA014817190671F40E944C0D1092BB01D9
:102010001092BA0186E0ECEEF1E0DF011D928A95A4
:10202000E9F7D2CF96E0929FD001939FB00D112493
:10203000A454BE4FFE01319601900D929A95E1F79E
:102040008093BB010E94920DBFCF819FC0011124DC
:1020500084549E4F0E94170E8823E9F0E091BA0144
:102060001E9FF0011124E454FE4F40815181628192
:102070007381848195810E94820D8091BA0190E0E4
:102080000196877099278093BA018091BA01909147
:10209000BB018913DACF2C960FB6F894DEBF0FBEC2
:1020A000CDBFDF91CF911F91089569857A858B858A
:1020B0009C850E94820D88CFEF92FF920F931F9311
:1020C000CF93DF938C01892B81F0F12CEE24E394E4
:1020D000E8012196F8018491843770F4843008F087
:1020E0005FC08130B1F08230A1F1DF91CF911F91BB
:1020F0000F91FF90EF900895853709F44CC008F4D4
:102100003DC09CE7980F903780F78F770E949D0A1B
:1021100049C00E5F1F4FFE01849190E2980F9830E6
:1021200060F48770FE2D01C0FF0F8A95EAF78F2FAC
:102130000E94EE120E94171302C00E94570A8F2DB0
:10214000815030F2EFE9FFE03197F1F700C0000075
:10215000F7CF0E5F1F4FFE01849190E2980F9830E9
:1021600050F48770FE2D01C0FF0F8A95EAF78F2F7C
:102170000E94F412DFCF0E949D0AE1CF0E5F1F4F35
:10218000FE01C491C150D8F28FE99FE00197F1F7A9
:1021900000C00000F7CF0E5F1F4FFE01F490CFCFBD
:1021A0000E94570A8E01CBCF08950C94D4100E9440
:1021B000D5106093140270931502809316029093C9
:1021C00017020C943A0D08950C94D7100F931F9397
:1021D00000911402109115022091160230911702FD
:1021E000602B712B822B932B1F910F910C94D71086
:1021F0000F931F9300911402109115022091160263
:102200003091170260237123822393231F910F9132
:102210000C94D7100F931F93009114021091150284
:102220002091160230911702602771278227932789
:102230001F910F910C94D7100C94D4100C941C1176
:102240000E941E116093100270931102809312027B
:10225000909313020C943A0D60E070E0CB010C9463
:1022600020110F931F9341E050E060E070E08A017D
:102270009B0104C0000F111F221F331F8A95D2F744
:10228000C901B8011F910F910C9420110F931F9356
:1022900041E050E060E070E004C0440F551F661F4D
:1022A000771F8A95D2F78091100290911102A09128
:1022B0001202B09113028A019B01082B192B2A2BC1
:1022C0003B2BC901B8011F910F910C9420110F9362
:1022D0001F9341E050E060E070E004C0440F551FE0
:1022E000661F771F8A95D2F7CB01BA01609570956A
:1022F0008095909500911002109111022091120288
:102300003091130260237123822393231F910F9135
:102310000C9420110F931F9341E050E060E070E0B7
:1023200004C0440F551F661F771F8A95D2F780910E
:10233000100290911102A0911202B09113028A0131
:102340009B01082719272A273B27C901B8011F919C
:102350000F910C9420110F931F9300911002109174
:1023600011022091120230911302602B712B822BEB
:10237000932B1F910F910C9420110F931F93009199
:102380001002109111022091120230911302602369
:102390007123822393231F910F910C9420110F938B
:1023A0001F9300911002109111022091120230919E
:1023B000130260277127822793271F910F910C9496
:1023C000201108952CE0929F800D1124982F977072
:1023D00041E001C0440F9A95EAF786958695869567
:1023E00095E0899FF0011124EE50FE4F90E080E0CF
:1023F00070E05191DF0111979B01082E02C03695C4
:1024000027950A94E2F72170219525272423252773
:102410002C9301968530910561F708952CE0929FE9
:10242000800D1124982F977086958695869525E0C6
:10243000829FF0011124EE50FE4F50E040E080E01A
:10244000219130E0092E02C0369527950A94E2F7D3
:1024500021703327042E01C0220F0A94EAF7822B41
:102460004F5F5F4F4530510559F70895BF92CF92A6
:10247000DF92EF92FF920F931F93CF93DF938C0124
:10248000C0901002D0901102E0901202F09013025E
:102490008091140290911502A0911602B09117023A
:1024A000C82AD92AEA2AFB2ACFE1D0E0BC2ED701DC
:1024B000C6010C2E04C0B695A795979587950A94EA
:1024C000D2F780FD0EC0219788F7B12C8B2DDF91BC
:1024D000CF911F910F91FF90EF90DF90CF90BF9021
:1024E0000895B8018C2F0E944903019761F3EECF44
:1024F000CF93DF93EC010E943612BE01DF91CF91A2
:102500000C9449031F93CF93DF93EB019091B90192
:10251000992331F0CB01DF91CF911F910C94781268
:10252000882379F0CB010E943612182F682FCE0134
:102530000E94E211BE01812FDF91CF911F910C9477
:102540004903CB010E940E12182FF4CF682F8091FF
:102550000001909101010C94BB14682F809100013F
:10256000909101010C94C614809100019091010199
:102570000C94D114809118028595859585950895C0
:10258000809118028770089590911802977081E0E9
:1025900009F480E0089580913C02089590913C02F6
:1025A000892B80933C020895809590913C0298235A
:1025B00090933C02089510923C02089590913B0242
:1025C000892B80933B020895809590913B0298233C
:1025D00090933B02089510923B02089590913A0225
:1025E000892B80933A020895809590913A0298231E
:1025F00090933A02089510923A0208958091190238
:10260000089508950C94011390911902981721F0E0
:10261000809319020C940213089580911902882363
:1026200029F01092190280E00C9402130895E091B1
:102630000001F091010180913C028083E091000152
:10264000F0910101808190913B02892B8083E09180
:102650000001F0910101808190913A02892B8083E1
:1026600090911902992381F0E0910001F09101010C
:102670008081892B808380910001909101010E94CB
:10268000271481110E940D13809100019091010186
:102690000C94D30808950C944A1398E0899F9001F4
:1026A0001124622B609318020E9446118091180237
:1026B0008595859585950C944B131092180280E0B2
:1026C0000C944B13909118028095892380931802E3
:1026D000282F277071F4282F082E000C330B921727
:1026E000130639F08595859585950E9467110C94A0
:1026F0005D13089580E0089590E080E00E94D21C70
:1027000021E08B3E9E4F09F020E0822F089582E069
:1027100090E00C94CA1C83E090E00C94CA1CCF9308
:1027200084E090E00E94CA1CC82F81E290E00E94E1
:10273000CA1C982F8C2FCF910895CF93C92F682F43
:1027400084E090E00E94D81C6C2F81E290E0CF9151
:102750000C94D81CAB01BC018FE090E00C94EA1CF7
:10276000AB01BC0183E190E00C94EA1C60E070E0F6
:10277000CB010C94B01360E070E0CB010E94AA136F
:102780000C94B6136BEE7EEF90E080E00E94F61C96
:1027900060E082E090E00E94D81C60E083E090E07E
:1027A0000E94D81C10921402109215021092160268
:1027B0001092170260E084E090E00E94D81C60E074
:1027C00081E290E00E94D81C60E085E090E00E94E9
:1027D000D81C60E086E090E00E94D81C6FEF87E094
:1027E00090E00E94D81C40E050E0BA0188E090E000
:1027F0000E94EA1C60E08DE090E00E94D81C40E05E
:1028000050E0BA0188E190E00E94EA1C60E087E1B4
:1028100090E00E94D81C40E050E0BA018CE190E0CA
:102820000E94EA1C60E080E290E00E94D81C40E038
:1028300050E0BA0188E190E00E94EA1C0C94BB13BE
:102840000C94C213682F8EE090E00C94D81CFC010D
:10285000329680910C01882321F0809175029EE1CF
:1028600087FF96E080E0915008F40895219122239B
:10287000D1F38F5FF8CF662301F120910C01222361
:10288000F1F02091750227FF1AC0462F4695469514
:1028900046954E3190F4677021E030E002C0220F7F
:1028A000331F6A95E2F7840F911DFC01828190E04D
:1028B0002823392381E0232B69F480E00895FC016B
:1028C000329608962191261721F0E817F907D1F7DB
:1028D000F4CF81E008959C01FC0132969FEF80E0E7
:1028E0004191461751F09F3F19F4411101C0982FB3
:1028F0008F5F8630A9F79F3F09F40895290F311D96
:1029000097FD3A95F90162830895FC013296089685
:102910002191261303C0DF0111971C92E817F907D4
:10292000B9F70895E62FE695E695E695EE3168F459
:10293000E80FF92FF11D677021E030E001C0220F90
:102940006A95EAF78281822B82830895E62FE695C5
:10295000E695E695EE3170F4E80FF92FF11D6770FA
:1029600021E030E001C0220F6A95EAF720958281CC
:1029700028232283089520910C01222329F02091FD
:10298000750227FD0C9492140C946B1420910C0189
:10299000222329F02091750227FD0C94A6140C9493
:1029A0008514FC01329680910C01882351F08091AE
:1029B000750287FF06C08EE1DF011D928A95E9F757
:1029C000089586E0F9CF089508950C94E414809159
:1029D0007B02843049F10E94E51480E00E942403C8
:1029E00010923E0288E190E020E40FB6F894A8959A
:1029F000809360000FBE2093600083B7817F846066
:102A000083BF83B7816083BF7894889583B78E7FB7
:102A100083BF0FB6F894A895809160008861809379
:102A20006000109260000FBE08950895CF930E9439
:102A3000E3140E949A050E941515C0E08C2F0E9495
:102A40003305892B31F4CF5FC430C1F780E0CF91DB
:102A5000089581E0FCCF08950C942B150E944C0D35
:102A60000E94C7080E9424030C942C151F921FB6C5
:102A70001F9211248F939F93AF93BF9380913E0237
:102A8000811113C08091710290917202A091730222
:102A9000B09174024196A11DB11D80937102909373
:102AA0007202A0937302B0937402BF91AF919F9191
:102AB0008F911F901FBE1F90189582E084BD93E0F8
:102AC00095BD9AEF97BD80936E0008952FB7F89447
:102AD0008091710290917202A0917302B091740280
:102AE0002FBF08952FB7F894609171027091720210
:102AF00080917302909174022FBF08959C014FB78B
:102B0000F8948091710290917202A0917302B09139
:102B100074024FBF821B930B089578941F921FB6C7
:102B20001F9211248F939F93AF93BF938091710253
:102B300090917202A0917302B09174020196A11D4E
:102B4000B11D8093710290937202A0937302B093AF
:102B50007402BF91AF919F918F911F901FBE1F90E4
:102B6000189581E08093E00080E28093D800109275
:102B7000C9008FE19EE40197F1F700C0000087E0F3
:102B800090EBDC018093840290938502A0938602EF
:102B9000B093870288E19CE00FB6F894A8958093E3
:102BA00060000FBE90936000FFCF909391018093DF
:102BB000900108950E947C13811102C00E9420148C
:102BC0000E94871380933D020E948F139093760298
:102BD000809375020E948B13682F70E090E080E074
:102BE0000E94E41060911002709111028091120213
:102BF000909113020C941E1180915F020895089524
:102C0000CF93DF9300D00F92CDB7DEB790917B02C8
:102C1000943019F589837B836A8382E08093E9008D
:102C20008FEF9091E800815095FD06C095ED9A9543
:102C3000F1F700008111F5CF8091E80085FF0DC00C
:102C400050E040E063E070E0CE0101960E940B1876
:102C50008091E8008E778093E8000F900F900F909E
:102C6000DF91CF910895BC0184E00C940016BC0163
:102C700083E00C940016CF93DF93EC0180910C015C
:102C80008823B1F18091750287FF32C060E282E053
:102C90008093E9008FEF9091E800815095FD06C088
:102CA00095ED9A95F1F700008111F5CF8091E8003C
:102CB00085FF1BC080910C0170E050E040E0811165
:102CC00004C050E040E068E070E0CE010E940B18C4
:102CD0008091E8008E778093E80080E2FE01AFE308
:102CE000B2E001900D928A95E1F7DF91CF910895BE
:102CF00068E081E0CDCF80917A02811109C00E9405
:102D00009B190E94F8198091E20084608093E20090
:102D1000089510927A02089508950895089542E062
:102D200061EC81E00E94171942E261EC82E00C94B0
:102D3000171980917D02833009F45FC030F481302F
:102D4000C1F1823009F49BC008958A3009F487C02C
:102D50008B3009F46DC0893009F04EC080917C023F
:102D6000813209F049C080918002909181020297DE
:102D700008F042C08091E800877F8093E80080914E
:102D8000E80082FF35C09091F3008091F200029735
:102D900029F48091F1008B7F813021F48091F10042
:102DA00080935F028091E8008B778093E8000C9419
:102DB0004B1980917C02813AF9F48091E800877F79
:102DC0008093E8008091800290918102892B61F4C8
:102DD00060E28FE392E070E00E945A188091E80070
:102DE0008B778093E800089560E090E080E0F3CF77
:102DF00080917B028111C3CF089580917C02813A3A
:102E0000D9F78091800290918102892BA9F7809156
:102E1000E800877F8093E8008091E80080FFFCCF86
:102E200080910C018093F1008091E8008E77BDCFF6
:102E300080917C02813201F7809180029091810221
:102E4000892BD1F68091E800877F8093E8000E946B
:102E50004B1980917E0280930C010C944C0D809153
:102E60007C02813249F68091E800877F8093E800F8
:102E70000E944B1980917F02809360020895809197
:102E80007C02813A09F0B8CF8091E800877F809377
:102E9000E8008091E80080FFFCCF80916002C2CF03
:102EA00084B7877F84BF0FB6F894A895809160009F
:102EB000886180936000109260000FBE80E890E00F
:102EC0000FB6F89480936100909361000FBE0E944A
:102ED0004D090E949B190E94F8198091E2008460BC
:102EE0008093E20078940E94811C0E945D0982E038
:102EF00091E00E94C20880917B028530A9F00E9477
:102F000067090E945B090E945C09F5CF0E94E714E3
:102F100080917902882341F00E941615882321F0C0
:102F20000E94F5170E944C0D80917B02853071F351
:102F30000E942E15E4CF0C949D17292F33272330A0
:102F4000310519F168F42130310509F444C022300B
:102F5000310509F445C090E080E030E020E025C074
:102F60002132310549F122323105A9F780E490E0A0
:102F70002AEA32E061157105C1F08DE690E02DE39B
:102F800032E06130710589F0E6CF992781309105F3
:102F900081F0009729F00297F1F6ECECF1E002C025
:102FA000ECEEF1E0849190E09F01FA0131832083FF
:102FB0000895E8EDF1E0F6CF89E090E022E032E01C
:102FC0006115710591F389E090E02BE132E0613009
:102FD000710559F3C0CF82E190E02BE232E0E5CFFA
:102FE0008BE390E020EF31E0E0CF80E189BD82E12A
:102FF00089BD09B400FEFDCF8091D8008F7D8093FC
:10300000D8008091E00082608093E0008091E00031
:1030100081FDFCCF0895AF92BF92CF92DF92FF92D5
:103020000F931F93CF93DF936C01EB018A010E94F2
:103030006A19F82E811123C00115110539F0F80124
:1030400080819181C81BD90BC80ED91EB12CA12C2F
:103050002097A9F08091E80085FD22C08091E800CA
:103060008E778093E80001151105A1F0F8018081A9
:103070009181A80EB91EB182A08285E0F82E8F2D15
:10308000DF91CF911F910F91FF90DF90CF90BF9074
:10309000AF9008950E946A198823D1F2F82EEFCFDD
:1030A000F60181916F018093F1002197FFEFAF1A34
:1030B000BF0ACECFFC0180918202909183028617D5
:1030C0009707A0F06115710529F49091E8009E77AB
:1030D0009093E80090E06115710551F4911108C0DA
:1030E0008091E80082FF34C080E00895BC01F2CFF7
:1030F00080917B028823C1F18530C1F18091E80085
:1031000083FD30C08091E80082FDEACF8091E80025
:1031100080FFE1CF8091F3002091F200382F6115FC
:10312000710519F02830310558F091E0283031054B
:1031300009F090E02091E8002E772093E800CBCFB3
:1031400081918093F100615071092F5F3F4FE7CF6C
:1031500080917B02882341F0853041F08091E80026
:1031600083FFBECF81E0089582E0089583E0089553
:10317000FC01809182029091830286179707A0F04C
:103180006115710529F48091E8008E778093E8003D
:1031900090E06115710551F4911108C08091E8002B
:1031A00082FF35C080E00895BC01F2CF80917B02A0
:1031B0008823C9F18530C9F18091E80083FD31C0D1
:1031C0008091E80082FDEACF8091E80080FFE1CFA6
:1031D0008091F3002091F200382F6115710519F0EC
:1031E0002830310558F091E02830310509F090E0A1
:1031F0008091E8008E778093E800CBCF8491809314
:10320000F1003196615071092F5F3F4FE6CF8091F9
:103210007B02882341F0853041F08091E80083FFF4
:10322000BDCF81E0089582E0089583E00895982F4E
:10323000973028F08F708093E90081E00895909393
:10324000E900242F762F50E0981731F07091EC00B0
:103250002091ED005091F00021FD02C09F5FE8CF6A
:103260003091EB003E7F3093EB003091ED003D7FDD
:103270003093ED003091EB0031603093EB007093B0
:10328000EC002093ED005093F0002091EE0027FD1C
:10329000E5CF80E0089580917C0287FF13C0809184
:1032A000E80082FF06C08091E8008B778093E800F9
:1032B00004C080917B028111F2CF089580917B023E
:1032C0008823D9F38091E80080FFF8CF8091E8004F
:1032D0008E77ECCF2091E4003091E50095E6A901CE
:1032E0002091EC00822F817020FF06C08091E800C1
:1032F00080FF06C080E008952091E80022FD1AC0FA
:1033000080917B02882389F0853089F08091EB00E1
:1033100085FD0FC02091E4003091E500421753076E
:10332000F9F29150E1F684E0089582E0089583E097
:10333000089581E008950E94091A0E94111AE0EE92
:10334000F0E0808181608083E8EDF0E080818F771C
:10335000808319BCA7EDB0E08C918E7F8C93808127
:103360008F7E808310927A0208950F931F93CF93DC
:10337000DF930E94091A0E94111AC8EDD0E08881DB
:103380008F77888388818068888388818F7D888310
:1033900019BC10927B02109277021092790210925F
:1033A000780200EE10E0F80180818B7F80838881B5
:1033B0008160888342E060E080E00E941719E1EEBE
:1033C000F0E080818E7F8083E2EEF0E0808181609A
:1033D0008083808188608083F80180818E7F8083F4
:1033E000888180618883DF91CF911F910F9108952B
:1033F000E8EDF0E080818F7E8083E7EDF0E0808172
:103400008160808384E082BF81E080937A020C94A3
:10341000B519E8EDF0E080818E7F80831092E200A4
:1034200008951092DA001092E10008951F920F9211
:103430000FB60F9211242F933F934F935F936F9387
:103440007F938F939F93AF93BF93EF93FF9380915D
:10345000E10082FF0BC08091E20082FF07C08091F3
:10346000E1008B7F8093E1000E94801C8091DA0054
:1034700080FF19C08091D80080FF15C08091DA00CC
:103480008E7F8093DA008091D90080FF96C080E122
:1034900089BD82E189BD09B400FEFDCF81E0809342
:1034A0007B020E947B168091E10080FF19C0809111
:1034B000E20080FF15C08091E2008E7F8093E200E1
:1034C0008091E20080618093E2008091D800806268
:1034D0008093D80019BC85E080937B020E948D16F2
:1034E0008091E10084FF2BC08091E20084FF27C01F
:1034F00080E189BD82E189BD89B5982F917080FFF7
:10350000FBCF8091D8008F7D8093D8008091E1001F
:103510008F7E8093E1008091E2008F7E8093E200B5
:103520008091E20081608093E2008091770288239D
:1035300009F449C084E080937B020E948E1680913A
:10354000E10083FF29C08091E20083FF25C08091C4
:10355000E100877F8093E10082E080937B021092FC
:1035600077028091E1008E7F8093E1008091E200FC
:103570008E7F8093E2008091E20080618093E20080
:1035800042E060E080E00E9417198091F0008860BE
:103590008093F0000E948C16FF91EF91BF91AF9144
:1035A0009F918F917F916F915F914F913F912F915B
:1035B0000F900FBE0F901F90189519BC10927B02B0
:1035C0000E94891670CF8091E30087FD93E090936D
:1035D0007B02B3CF1F920F920FB60F9211242F933D
:1035E0003F934F935F936F937F938F939F93AF938B
:1035F000BF93CF93DF93EF93FF93D091E900DF70F8
:103600008091EC00C82FC17080FDC0E81092E900E5
:103610008091F000877F8093F00078940E942E1BA9
:103620001092E9008091F00088608093F000CD2B2B
:10363000CF70C093E900FF91EF91DF91CF91BF91DF
:10364000AF919F918F917F916F915F914F913F913A
:103650002F910F900FBE0F901F9018951F93CF932F
:10366000DF93CDB7DEB7AA970FB6F894DEBF0FBED3
:10367000CDBF8CE792E02091F100FC012193CF01B6
:10368000F2E084389F07B9F70E9499168091E8000C
:1036900083FF1EC180917C0290917D029A3008F0D8
:1036A00017C1E92FF0E0E45DF24E0C94B01C8038B5
:1036B00099F0823809F00CC1809180028F708730B8
:1036C00008F006C18093E9008091EB0085FB882714
:1036D00080F91092E90006C08091780290917902F9
:1036E000911182609091E800977F9093E800809319
:1036F000F1001092F1008091E8008E77E5C08823F8
:1037000009F4D3C0823009F0E3C080917E028111B8
:10371000D6C0809180028F702FEF280F263008F0DE
:10372000D7C08093E9002091EB0020FFC8C0933000
:1037300031F48091EB0080628093EB00C0C09091E7
:10374000EB0090619093EB0021E030E001C0220F8C
:103750008A95EAF72093EA001092EA008091EB0044
:103760008860EACF8111B4C010917E021F778091EA
:10377000E3008078812B8093E3008091E800877FCD
:103780008093E8000E944B198091E80080FFFCCFF5
:103790008091E30080688093E30082E0111183E070
:1037A00080937B0295C08058823008F091C0809150
:1037B0007E0290917F028C3D23E09207A1F583E089
:1037C0008A838AE289834FB7F894DE01139620E05A
:1037D0003EE051E2E32FF0E050935700E49120FFE8
:1037E00003C0E295EF703F5FEF708E2F90E0EA30FC
:1037F000C0F0C7968D939D932F5F243159F74FBF2B
:103800008091E800877F8093E8006AE270E0CE0153
:1038100001960E945A188091E8008B778093E80007
:1038200057C0C096E7CF6091800270918102AE01CF
:103830004F5F5F4F0E949B17BC01892B09F448C062
:103840009091E800977F9093E80089819A810E9487
:10385000B818E1CF8038E1F58091E800877F809348
:10386000E800809177028093F10045CF811130C04C
:1038700090917E02923060F58091E800877F80937E
:10388000E800909377020E944B1980917702882379
:1038900011F084E005C08091E30087FDFACF81E05C
:1038A00080937B020E948F1613C080917E0281302C
:1038B00079F481E0933009F080E0809379021092EE
:1038C000E9008091E800877F8093E8000E944B190F
:1038D0008091E80083FF0AC08091E800877F809391
:1038E000E8008091EB0080628093EB00AA960FB60F
:1038F000F894DEBF0FBECDBFDF91CF911F91089529
:103900000895CF9380917B028823A1F0C091E900B4
:10391000CF709091EC00892F817090FD80E8C82BCA
:103920001092E9008091E80083FD0E942E1BCF7069
:10393000C093E900CF91089597FB072E16F40094E9
:1039400007D077FD09D00E94B61C07FC05D03EF4D5
:10395000909581959F4F0895709561957F4F08953B
:10396000EE0FFF1F0590F491E02D0994AA1BBB1BDD
:1039700051E107C0AA1FBB1FA617B70710F0A61B6F
:10398000B70B881F991F5A95A9F780959095BC0190
:10399000CD010895F999FECF92BD81BDF89A99277E
:1039A00080B50895A8E1B0E042E050E00C94FE1C20
:1039B000262FF999FECF92BD81BDF89A019700B4E8
:1039C000021639F01FBA20BD0FB6F894FA9AF99A88
:1039D0000FBE08950396272F0E94D91C0E94D81C61
:1039E000252F0E94D91C242F0C94D91C0196272F17
:1039F0000E94D91C0C94D81CDC01CB01FC01F99964
:103A0000FECF06C0F2BDE1BDF89A319600B40D922A
:103A100041505040B8F70895F894FFCF260B260B7D
:103A20007E0B7E0BD10B530B530B530BED0B790C11
:103A3000880C880CE10C530B530BEA0C5B0D5B0DEF
:103A4000640D640D660D640D640D640D5B0D5B0DFE
:103A50006B0D640D640D6B0D571B7F1B681C7F1B6A
:0C3A6000681CB21BD31B681C2A1C361CFF
:103A6C001A02FC153B16FF153716331601E200E956
:103A7C0000EA00B500B600B700CD008301CC008A87
:103A8C00019201940121022302240225022602271D
:103A9C00022A02B300B4006F007000818283F0959B
:103AAC00F4F5F6F76766363534949293F13700FFE8
:103ABC000100010000FFFF0000010001FF00E20017
:103ACC00E900EA00B500B600B700CD008301CC00D8
:103ADC008A0192019401210223022402250226026A
:103AEC0027022A02B300B4006F00700081828300A9
:00000001FF
