:100000000C9443020C948A020C948A020C948A0287
:100010000C948A020C948A020C948A020C948A0230
:100020000C948A020C948A020C9493220C946723F9
:100030000C94CC1C0C948A020C948A020C948A02B4
:100040000C948A020C948A020C948A020C948A0200
:100050000C948A020C94231D0C948A020C948A023C
:100060000C948A020C948A020C948A020C948A02E0
:100070000C948A020C948A020C948A020C948A02D0
:100080000C948A020C948A020C948A020C948A02C0
:100090000C948A020C948A020C948A020C948A02B0
:1000A0000C948A020C948A020C948A02290014008F
:1000B0001A000800150017001C0018000C001200A0
:1000C00013002A002B0004001600070009000A0094
:1000D0000B000D000E000F0000002800E1000000E2
:1000E0001D001B0006001900050011001000285D0E
:1000F00052003900E000E3000000E2004B002C0059
:100100004E0001510251500051004F0035001E00B9
:100110001F002000210022002300240025002600CB
:1001200027003100390049004A004B002D002E0005
:100130002F003000330034000000010001000000F7
:100140004C004D004E000100360037003800010021
:100150000100A8000100010000000100AA00010048
:10016000A900010001000100010001003A003B006C
:100170003C003D003E003F00400041004200430083
:1001800044004500010001000100010001000100E0
:100190000100BE00BD0001000000010001000000E0
:1001A0004600470048000100A800AA00A90001007D
:1001B000010001000100010000000100BE00005C20
:1001C000BD0001000100010001000100000000006D
:1001D000000000000000000000000000000000001F
:1001E000000000000000000000000000000000000F
:1001F00000000000000000000000000000000000FF
:1002000000000000000000000000000000000000EE
:1002100000000000000000000000000000000000DE
:1002200000000000000000000000000000000000CE
:10023000000000002A2B2800000000000000000041
:100240000000000000000029000000002C1E3420E7
:10025000212224342627252E362D3738271E1F200D
:100260002122232425263333362E37381F04050652
:100270000708090A0B0C0D0E0F1011121314151696
:100280001718191A1B1C1D2F3130232D3504050694
:100290000708090A0B0C0D0E0F1011121314151676
:1002A0001718191A1B1C1D2F3130354C0000000087
:1002B000000000000000000000000000000000003E
:1002C000000000000000000000000000000000002E
:1002D0007E0F00D4FFFFFFC7000000780A0358001C
:1002E000740072006D00000012034C0065006F0086
:1002F0002000440065006E0067000000040309044C
:1003000009025B00030100A0FA09040000010301D7
:1003100001000921110100012240000705810308A5
:10032000000A090401000203000000092111010074
:100330000122220007058203200001070503032094
:10034000000109040200010300000009211101005D
:100350000122B6000705840320000A1201100100E3
:1003600000000829DE03730100010200010660FF9E
:100370000961A1010962150026FF00952075088119
:10038000020963150026FF00952075089102C0053B
:10039000010902A10185020901A10005091901292C
:1003A000081500250195087501810205010930092C
:1003B000311581257F95027508810609381581253B
:1003C0007F950175088106050C0A38021581257F85
:1003D000950175088106C0C005010980A10185034A
:1003E00019012AB700150126B70095017510810083
:1003F000C0050C0901A101850419012AA0021501FB
:1004000026A002950175108100C005010906A10111
:100410008505050719E029E71500250195087501EF
:1004200081020507190029EF1500250195F07501D6
:1004300081020508190129059505750191029501AB
:1004400075039101C005010906A101050719E029FD
:10045000E715002501950875018102950175088150
:10046000010507190029FF150026FF0095067508EC
:10047000810005081901290595057501910295016D
:1004800075039101C00011241FBECFEFDAE0DEBF7B
:10049000CDBF04B603FE27C08091A7029091A802A9
:1004A000A091A902B091AA028730904BA740B04B0F
:1004B000D1F41092A7021092A8021092A9021092F1
:1004C000AA0214BE84B7877F84BF0FB6F894A8959C
:1004D00080916000886180936000109260000FBE80
:1004E000E0E0F8E3099511E0A0E0B1E0EAE9FBE41F
:1004F00002C005900D92A63AB107D9F722E0A6EA0C
:10050000B1E001C01D92A73AB207E1F70E94511F66
:100510000C9490250C94000090E080E008950895DC
:100520000895FB01823E910561F088322DE5920726
:1005300061F0803E910519F482818093A90181E0E8
:10054000089582818093A801FACF8281882339F0AF
:1005500080EE0E94C3118CE20E94C311F0CF8CE2A6
:100560000E94111280EE0E941112E9CF81FF03C098
:10057000519A599808955198FCCFCF93C62F609106
:1005800033027091340280913502909136020E94BC
:10059000D10481111BC09091A901992331F080E50C
:1005A000C1118FE4CF910C9457129091A801992317
:1005B00069F08BE2C111F6CF81EE0E94C3118BE28C
:1005C0000E94571281EECF910C94111266E0C11176
:1005D00001C064E073E00E94460DE4CF81E008951D
:1005E0000C94910208950C94F2021F93CF93DF9321
:1005F00000D000D00F92CDB7DEB749835A836B830A
:100600003091DC0189819A8131111DC06623B9F0D6
:100610002223A9F00E94C619182F682F89819A8178
:100620000E94721969817A81812F0F900F900F902B
:100630000F900F90DF91CF911F910C94460D0E9467
:100640009E19182FEFCF0E94C61969817A81EDCFCC
:10065000FC01262F408151816281738184810C9439
:10066000F502CF93DF93EC0160E00E942803BE0106
:10067000DF91CF910C94F3028F929F92AF92BF9231
:10068000CF92DF92EF92FF920F931F936B017C0149
:1006900081E090E0A0E0B0E04C015D0104C0880C76
:1006A000991CAA1CBB1C4A95D2F7B501A4014C01A8
:1006B0005D0104C0880C991CAA1CBB1C2A95D2F7AA
:1006C000482959296A297B2904C0880F991FAA1F24
:1006D000BB1F0A95D2F78A019B010C211D212E21F7
:1006E0003F21041715072607370789F48C299D2910
:1006F000AE29BF29BC01CD011F910F91FF90EF9052
:10070000DF90CF90BF90AF909F908F90089580958D
:100710009095A095B0958C219D21AE21BF21EACF67
:100720000F93382F262F60913302709134028091FD
:10073000350290913602042F432F0E943C030F9103
:100740000C94B0180E94721D0E94121B811102C0ED
:100750000E94B61B0C9424070C94260708950E944F
:10076000DC140E94AE032FEF84E39CE02150804014
:100770009040E1F700C000000C94471D0F931F93B9
:10078000CF93DF93EC0161E00E9428038C01BE014E
:100790000E948E0B882359F1BE01C8010E94F0020D
:1007A000882329F1BE01C8010E947D0E8823F9F03B
:1007B000BE01C8010E94CF0E8823C9F0BE01C80146
:1007C0000E94F20F882399F08A81882339F001155D
:1007D0008CE5180751F00E3D1C4579F0CE01DF91F4
:1007E000CF911F910F910C94EE020E94AF0380E015
:1007F000DF91CF911F910F9108950E94B61BF7CF03
:10080000DF92EF92FF920F931F93CF93DF93E82F26
:10081000F0E0E45DFD4FD490282F2695269526958F
:1008200030E0F901E453FD4F0491877010E0082E89
:1008300002C0159507950A94E2F701701127F90196
:10084000E454FD4FE490F12C082E02C0F594E79497
:100850000A94E2F791E0E922FF24F901E455FD4F03
:10086000C491D0E002C0D595C7958A95E2F7C170D2
:10087000DD270115110519F081EE0E94C311E11465
:10088000F10419F086EE0E94C3118D2D0E945712BB
:10089000EF2819F086EE0E941112012B19F081EE5B
:1008A0000E941112CD2B51F08CE2DF91CF911F915C
:1008B0000F91FF90EF90DF900C945712DF91CF9142
:1008C0001F910F91FF90EF90DF900895EF92FF92AC
:1008D0000F931F93CF93DF93EC01162F0AE08881CB
:1008E000882309F454C0813009F04EC089818130D9
:1008F00099F47E0122E0E20EF11C8A810E945712D7
:10090000E7012196812F815050F3EFE9FFE0319705
:10091000F1F700C00000F7CF823041F47E0182E0A1
:10092000E80EF11C8A810E94C311EACF833041F4A2
:100930007E01E2E0EE0EF11C8A810E941112E0CFEE
:10094000843011F02196DDCF2A81229690E080E05C
:10095000AE014F5F5F4F2053330B2A30310548F013
:10096000019778F2EFE9FFE03197F1F700C000005E
:10097000F7CF089FB001099F700D1124C901860FA0
:10098000971F2981EA01E4CF0E940004BACFDF91CA
:10099000CF911F910F91FF90EF90089560E00C941C
:1009A0006604CF92DF92EF92FF926C01EE24FF2457
:1009B00020E0C114D104E104F10419F0C701B6012B
:1009C00020E1C72ED82EE92EFF24C114D104E10462
:1009D000F10419F0285FC701B6016B017C0154E0F6
:1009E000F694E794D794C7945A95D1F7C114D104DB
:1009F000E104F10419F02C5FC701B6016B017C0121
:100A000042E0F694E794D794C7944A95D1F7C1147D
:100A1000D104E104F10419F02E5FC701B6019695E7
:100A2000879577956795672B682B692B09F02F5F62
:100A3000822FFF90EF90DF90CF9008950C94B60234
:100A400081E008950C942005CF93C82F0E941E05C5
:100A50008C2FCF910C9422050895FC01EE0FFF1FFF
:100A6000E452FD4F859194910895CF93DF930E94B6
:100A7000460D0E944A06EC01811520E5920708F018
:100A800042C0811530E4930708F0BDC0883E91054F
:100A900028F5803E910508F09DC0883A910588F4BC
:100AA000853A910508F08FC08130910509F492C014
:100AB000009709F48FC0049708F08CC0D0E0C0E024
:100AC00089C08F3B910508F489C0805C9109C03CC6
:100AD000D105A0F30E942D05EC017CC08115904248
:100AE00050F4C11581E0D80708F074C0C03FD105AB
:100AF00028F3D0656FC0C11590E3D90708F079C01D
:100B0000CE019F70E7CF811525E5920758F5811535
:100B100034E5930708F0A6C0811542E5940750F428
:100B2000C11581E5D80708F471C0DC2FCC27C16F4F
:100B3000D06A50C0982F969596959E0123703327C2
:100B4000C115D34508F07FC0C1E0D0E002C0CC0F92
:100B5000DD1F2A95E2F720E2929FC0011124C82BE5
:100B6000D92B6FC0C11589E5D807A8F4C11598E540
:100B7000D90708F07CC0C11526E5D20708F09ECF42
:100B80008C2F0E94E106C82FD0E0DC2FCC27CC2789
:100B9000DF71D0621FC0C1153AE5D30708F46CC0FD
:100BA000CE0190568115904208F088CF8D2F8F711D
:100BB0000E94E10690E0982F882788279F719C016A
:100BC0002C2BE901E6CFC55AD0E0CD5BDE4FC881C2
:100BD000D0E0D064CE01DF91CF910895C85AD0E023
:100BE000CC0FDD1FCB5EDE4F0990D881C02DD464C1
:100BF000F1CFCE019927D3FF03C0EC01D86CEACF27
:100C0000EC01D06CE7CFDF70D06AE4CFCE01E4E036
:100C100096958795EA95E1F783702C2F2695269572
:100C2000237090E2299F90011124382B8C2F837020
:100C3000C1E0D0E002C0CC0FDD1F8A95E2F7C22BE5
:100C4000D32BDC68C7CFC1E0D0E002C0CC0FDD1FE2
:100C50002A95E2F730E2939FC0011124C82BD92BCB
:100C6000DA68B8CFD82FCC27C46FD06AB3CFDC2FC7
:100C7000CC27C06FD06AAECF8C2F8F700E94E10658
:100C800034E0D695C7953A95E1F7CF709C2FEC01EB
:100C9000D069A0CF82389105B1F1B0F481339105CC
:100CA00009F475C048F48932910509F469C08A32A3
:100CB000910509F473C008958533910509F459C06D
:100CC0008933910501F10895833E9105A9F138F426
:100CD000803E9105F9F0823E910549F10895863EE6
:100CE0009105A9F1873E9105C9F1843E910519F559
:100CF0002091990221FF1FC08091980284FD14C0A9
:100D000087EE90E00895209198022370A1F080EE84
:100D100090E008952091980220FD47C030919902FB
:100D200030FF09C024FF44C090E080E004C020915F
:100D3000980222FDF7CF08952091980222FD3BC032
:100D40003091990230FDE3CF24FFF5CFEDCF209114
:100D5000980223FFF0CF24FDE7CFD2CF2091980255
:100D600023FD2CC03091990231FFEECF84EE90E04C
:100D700008952091980225FFDECF89E290E0089542
:100D80002091980225FFD7CF85E390E00895209128
:100D9000980226FFD0CF8AE290E008952091980231
:100DA00026FFC9CF81E390E0089589E390E008959C
:100DB00083EE90E0089582EE90E0089586EE90E054
:100DC00008959091980292FF06C0282F287128302C
:100DD000F9F4877F846093FF06C0282F287128319B
:100DE000F1F4877E84612091990220FF06C0382F9C
:100DF00038713830D9F4877F816021FF06C0282FF1
:100E000028712831D1F4877E816194FD877E089511
:100E1000282F24712430F9F68B7F8860DCCF282FAF
:100E20002471243101F78B7E8861DDCF382F317139
:100E3000313019F78E7F8860E0CF282F2171213162
:100E400021F78E7E8861E1CF0C948F020C94900282
:100E5000E82FF0E0EE0FFF1FE457FD4F80819181F6
:100E60000895089580EA8A95F1F7089500C00895DD
:100E70000C943207F894E82FE295EF70F0E031A17E
:100E8000282F2F7081E090E001C0880F2A95EAF7A3
:100E9000982F9095932391A392A1892B82A3789464
:100EA0000895CF93DF9382E90E943A0783E90E9475
:100EB0003A0781EF0E943A0787E30E943A07C6E4A7
:100EC000D1E089910E943A0781E0C235D807C9F77D
:100ED000109285021092840210928D0210928C0260
:100EE000109287021092860210928F0210928E0248
:100EF0001092890210928802109291021092900230
:100F000010928B0210928A02109293021092920217
:100F100084E00E941308DF91CF910C94A203AF925A
:100F2000BF92CF92DF92EF92FF920F931F93CF93D6
:100F3000DF9302E511E0C4E8D2E0C12CD12CEE240D
:100F4000E394F12CF80181918F01F894E82FE29558
:100F5000EF70F0E021A18F70A70102C0440F551F70
:100F60008A95E2F7CA01922F982B91A392A18095BE
:100F7000892382A378940E943607E6E4F1E030E00A
:100F800020E0B12CA12C4191A42FA295AF70B0E02C
:100F900090968C9190E04F7002C0959587954A95F8
:100FA000E2F780FD3BC0C701022E02C0880F991FE7
:100FB0000A94E2F7A82AB92A2F5F3F4F2C30310557
:100FC00011F7F801319780810E943A0753E0C5126A
:100FD0000E94380788819981A816B90611F1B98253
:100FE000A88281E0D82AC394229684E0C812AACFAE
:100FF0002D2D44E06CE872E084E892E00E94140831
:101000000E94AC038D2DDF91CF911F910F91FF9026
:10101000EF90DF90CF90BF90AF90089590E080E088
:10102000C9CF80E0DFCF0895FF920F931F93CF9336
:10103000DF93F82E092F162FD72FC42F222349F024
:1010400081E08093AC010E94FC1C9093AB018093E3
:10105000AA018091AC018823A1F08091AA0190910E
:10106000AB010E94141D069760F0EF2DF02FA12F09
:10107000BD2F90E080E0D0E08C179D0744F01092E7
:10108000AC01DF91CF911F910F91FF9008952191B5
:1010900031912D933D930196EFCF8091B30180FF65
:1010A00012C06091050185E0689FB001112475951B
:1010B00067957595679560387105A8F56115710597
:1010C000A1F1862F089581FF09C06091050185E097
:1010D000689FB001112475956795EDCF609105016A
:1010E00082FD0AC08091B2018823D1F09091040161
:1010F00060910501891728F085E0689FB0011124EF
:10110000DACF869FB001112485E0869F9001879FEA
:10111000300D1124692F70E0C9010E941925CBCF31
:1011200065E070E0CECF8FE7089581E0089580916B
:10113000B30180FF0CC06091010170E07595679567
:10114000759567956115710549F1862F089581FFA1
:1011500006C06091010170E075956795F3CF6091CD
:10116000010182FD0BC09091B1019923A1F0609122
:10117000000180910101961738F0682F70E0603807
:10118000710500F38FE70895899FC001112470E075
:101190000E941925F4CF61E070E0D7CF81E0089577
:1011A000803F31F40E944D0881958093B7010895E6
:1011B000813F19F40E944D08F8CF823F31F40E941C
:1011C0004D0881958093B6010895833F19F40E94DC
:1011D0004D08F8CF893F29F40E9497088093B80101
:1011E00008958A3F21F40E9497088195F7CF8B3F9D
:1011F00031F40E94970881958093B90108958C3F3E
:1012000019F40E949708F8CF9CE0980F953070F47D
:10121000845F990B21E030E001C0220F8A95EAF744
:101220008091B501822B8093B50108958D3F31F4F3
:101230008091B30181608093B30108958E3F21F4C2
:101240008091B3018260F7CF8F3FB9F78091B301EE
:101250008460F1CF4091B601803F59F48091B7018D
:1012600087FF0DC01092B70141110BC01092B2015F
:1012700008C0813F81F48091B70118169CF3442384
:1012800081F08091B8019091B901892B09F05AC081
:101290001092B1010895823F49F447FFF0CF1092B8
:1012A000B6018091B7018111ECCFE0CF833F19F4F3
:1012B0001416ACF3E4CF9091B801893F29F41916C4
:1012C000F4F61092B801DBCF8A3F19F497FFD7CF1D
:1012D000F8CF9091B9018B3F29F497FFD0CF1092AE
:1012E000B901CDCF8C3F19F41916CCF3C8CF9CE0CF
:1012F000980F953090F4845F990B21E030E0B901AC
:1013000002C0660F771F8A95E2F7CB018095909116
:10131000B50189238093B501B2CF8D3F31F480911F
:10132000B3018E7F8093B301AACF8E3F21F48091C9
:10133000B3018D7FF7CF8F3F09F0A1CF8091B3012B
:101340008B7FF0CF08950E94FC1C9C019091B60108
:101350008091B701982B21F03093B0012093AF0119
:101360009091B8018091B901982B21F03093AE0192
:101370002093AD0184EB91E00C944710EF92FF9223
:101380000F931F93CF93DF9300D000D000D0CDB741
:10139000DEB786E0E4EBF1E0DE01119601900D92FC
:1013A0008A95E1F7E090B601F090B7010091B8019D
:1013B0001091B9011092B6011092B7011092B801C4
:1013C0001092B9018E2D8F2991F08091AF019091EB
:1013D000B0010E94141DAC019091B201992309F44F
:1013E0003FC0809106018417150608F447C0802F7E
:1013F000812B91F08091AD019091AE010E94141D5E
:10140000AC019091B101992309F477C08091020158
:101410008417150608F47FC08091B6019091B7013A
:10142000892B9091B801892B9091B901892B11F0EA
:101430000E94A30986E0FE013196A4EBB1E0019081
:101440000D928A95E1F726960FB6F894DEBF0FBE8F
:10145000CDBFDF91CF911F910F91FF90EF90089535
:10146000209107018AE0289F900111242417350755
:1014700008F0BDCF9F5F9093B20102C09F3FD1F7AC
:10148000EE2059F00E944D089FEF1E140CF491E0DD
:10149000899F802D11248093B601FF2059F00E946E
:1014A0004D089FEF1F140CF491E0899F802D1124AB
:1014B0008093B7013091B601332309F498CF20917E
:1014C000B701222309F493CF45EB3403C001112463
:1014D000992359F09093B60145EB24039001112410
:1014E000332339F03093B70182CF81E08093B60186
:1014F000F3CF81E08093B7017ACF209103018AE096
:10150000289F900111242417350708F085CF9F5F8D
:101510009093B10102C09F3FD1F7002359F00E9480
:1015200097089FEF10160CF491E0899F802D1124ED
:101530008093B801112359F00E9497089FEF11166C
:101540000CF491E0899F802D11248093B901309192
:10155000B801332309F460CF2091B901222309F4A3
:101560005BCF45EB3403C0011124992359F09093CC
:10157000B80145EB240390011124332339F0309353
:10158000B9014ACF81E08093B801F3CF81E0809325
:10159000B90142CF86E0E4EBF1E0DF011D928A95CC
:1015A000E9F71092B2011092B1011092B3010895BF
:1015B0000C94BD0257985F9A56985E9A89B190E054
:1015C000880F892F881F990B4E9905C020E0822B28
:1015D0008093BC01089522E0FACFE091BC01EE0FA8
:1015E000EE0FE093BC0189B190E0880F892F881F2E
:1015F000990B49B146FB222720F946FF02C022E0A1
:1016000030E0822BE82BE093BC01EF70F0E0EA5A67
:10161000FE4F80819091BB01890F8093BB0120E038
:10162000843054F08091BA018F5F8093BA0160E0FA
:1016300080E00E94D80A21E08091BB018D3F54F4E4
:101640008091BA0181508093BA0161E080E00E94EC
:10165000D80A21E08091BB01082E000C990B64E0B0
:1016600070E00E9419258093BB01822F089582E2C9
:1016700090E00E944E25813289F483E290E00E943E
:101680004E25833059F484E290E00E944E2591E08B
:10169000873109F090E0892F8170089580E0FCCFB8
:1016A000CF93C82F6FEF811161E282E290E00E9438
:1016B0005C256FEFC11163E083E290E00E945C253E
:1016C0006FEFC11167E184E290E0CF910C945C254B
:1016D00080E00E94500B0C940C1B089585E290E072
:1016E0000E944E25682F70E090E080E0089585E22A
:1016F00090E00C945C250E946D0B0E94370B8111C9
:101700000CC060E070E0CB010E94770B0E94BE0C21
:101710000E94AA0D81E00C94500B0895CF93FB0119
:10172000C281CC2309F19C0122513F452031310572
:1017300020F582510E94BA0DC0E08C2FCF91089500
:1017400081E00E94D61843E062E081E00E949003AD
:10175000F3CF81E00E94F71843E062E081E00E944D
:101760009003EBCF82E0F6CF8031FFE59F0789F34E
:1017700081319F45B9F3C1E0E0CF8031EFE59E07AD
:10178000F9F281319F45C9F682E0DBCF2FEFFC01F2
:1017900020830895EF92FF920F931F93CF93DF93CF
:1017A000EC01062FE881E150E33108F05EC0F0E083
:1017B000EE56FA4D0C942D25198289E08A83602F0C
:1017C000CE01DF91CF911F910F91FF90EF900C947C
:1017D000461E8981823069F0833071F08130D9F4FE
:1017E0000E94081D0E9433256A837B838C839D831E
:1017F000E6CF0E946E0BF6CF7E0110E0812F0E9493
:101800002807F701928383831F5FF2E0EF0EF11C3C
:101810001430A1F7D4CF602FCE010E94C60BCFCFDA
:1018200089818230C1F76A817B818C819D810E9490
:1018300033250E94770BC3CF4B816A8189810E9437
:10184000900C9827892798279D838C83B8CF2C816B
:101850003D813227232732274B816A8189810E946B
:10186000A90CADCF0E94BE0CAACF8FEF8883A7CF63
:101870000E94530D8983A3CF0E94550D9827892775
:1018800098279A8389839BCF6B8170E089819A81A5
:10189000AE014C5F5F4F9827892798270E94580D0B
:1018A0008ECF6B8170E089819A81AE014C5F5F4F72
:1018B0009827892798270E947F0D81CF0E94AA0D23
:1018C0007ECF0E947E0CD6CF6B8170E089819A8199
:1018D000AE014C5F5F4F9827892798270E94F60C2E
:1018E0006ECF6B8170E089819A81AE014C5F5F4F52
:1018F0009827892798270E941C0D61CF84E00895BE
:1019000050E0440F551F98E1699F400D511D11246F
:1019100090E6899F400D511D1124CA0186960895B5
:101920000F931F93CF93DF930E94800C8C010E9432
:101930004E25C82FD0E0DC2FCC27C80101960E948D
:101940004E259E01282BC901DF91CF911F910F9148
:1019500008950F931F93CF93DF93122F032F0E94AD
:10196000800CEC01602F0E945C25612FCE01019656
:10197000DF91CF911F910F910C945C25AF92BF9294
:10198000CF92DF92EF92FF921F93CF93DF938CEA77
:10199000C82E80E0D82ED0E07601C0E014C0F5015A
:1019A00025913491412F6C2F8D2F0E94A90C82E03C
:1019B000A80EB11C1F5F1C3091F788E1E80EF11CE6
:1019C000CF5FC43019F0570110E0E9CFDF5F80E648
:1019D000C80ED11CD43001F7DF91CF911F91FF9039
:1019E000EF90DF90CF90BF90AF900895EF92FF926D
:1019F0000F931F93CF93DF93EC018A017C01E60ED6
:101A0000F71ECE018696CE15DF0539F4DF91CF9112
:101A10001F910F91FF90EF900895C03821E0D207F9
:101A200040F40E944E25F80180830F5F1F4F2196DE
:101A3000E8CFF8011082F9CFCF92DF92EF92FF92B8
:101A40000F931F93CF93DF937C016A018C01060FE4
:101A5000171FEC01CE018696C017D10749F4DF911C
:101A6000CF911F910F91FF90EF90DF90CF9008954D
:101A7000C03821E0D20740F4FE01EE19FF09EC0D59
:101A8000FD1D60810E945C252196E4CF462F8430A5
:101A900038F4743028F46C3018F4672F0C94900CE0
:101AA00090E080E0089580E108958AE592E008954D
:101AB000EF92FF920F931F93CF93DF93EC018A0174
:101AC0007C01E60EF71ECE018A559E4FCE15DF052E
:101AD00039F4DF91CF911F910F91FF90EF9008950E
:101AE000CA3522E0D20740F40E944E25F8018083D7
:101AF0000F5F1F4F2196E7CFF8011082F9CFCF92E9
:101B0000DF92EF92FF920F931F93CF93DF937C01AD
:101B10006A018C01060F171FEC01CE018A559E4FFA
:101B2000C017D10749F4DF91CF911F910F91FF901A
:101B3000EF90DF90CF900895CA3522E0D20740F4AD
:101B4000FE01EE19FF09EC0DFD1D60810E945C2570
:101B50002196E3CFCF93DF93C6EAD1E060E0CE01D8
:101B60000E945C252196C11584E0D807B9F7DF9162
:101B7000CF910895DF92EF92FF920F931F93CF932F
:101B8000DF9300D000D0CDB7DEB7F82E8FE08F15F1
:101B900040F08FEF93E00E944E2506EA11E0882383
:101BA000C1F00F900F900F900F90DF91CF911F9188
:101BB0000F91FF90EF90DF900895011584E01807D2
:101BC00081F3C8010E944E25811101C0FA940F5F74
:101BD0001F4FF110F2CF19821A821B821C82DD2462
:101BE000D39478018FEFE81AF80AC8010E944E25B5
:101BF00089831A828823A9F29FEF980F933078F493
:101C00008A83D9820E5F1F4FC7010E944E258B83A6
:101C1000882339F2CE0101960E94CE04E2CF8701DB
:101C2000F9CF0F931F93CF93DF93C42FD22FFC01D3
:101C300082818823C9F04093BF010E94FC1C9093CD
:101C4000BE018093BD0180E28C0F883008F050C047
:101C5000C77081E001C0880FCA95EAF7DF91CF9184
:101C60001F910F910C945F121091BF01141335C096
:101C70008091BD019091BE010E94141D883C910588
:101C800060F5C0E2CD0F1D17B9F080E2810F8830FA
:101C900040F4177081E001C0880F1A95EAF70E949E
:101CA0006612C83048F481E09D2F977001C0880FFC
:101CB0009A95EAF70E945F12802F0E945712C8304F
:101CC000B8F4D77081E001C0880FDA95EAF7DF91A8
:101CD000CF911F910F910C94661280E28C0F883087
:101CE00038F4C77081E001C0880FCA95EAF7EFCFDA
:101CF000DF91CF911F910F9108950F939C01CB011C
:101D0000233F4CE5340759F1A8F4283DFCE53F0793
:101D100001F1293D4CE53407D1F1273D3C4591F4D3
:101D200006E221EE41EE67ED7CE50E94110E80E0B7
:101D30000F910895253FFCE53F07E9F0B0F0263FFD
:101D40003C45F9F0FC018281882339F11092BF01F2
:101D5000EFCF07E225EE45EE68ED7CE5E6CF06E243
:101D600021EE40EE63EF7CE5E0CF07E225EE44EEA6
:101D700064EF7CE5DACF06E221EE42EE65EF7CE52A
:101D8000D4CF07E225EE46EE66EF7CE5CECF08E243
:101D900021E045EE69ED7CE5C8CF81E0C9CFCF9366
:101DA000DF93EC01FB018281882309F419C1C23061
:101DB000FCE5DF07C0F1C6319CE5D90730F09E0194
:101DC0002A5F3C452930310570F50E94251B909310
:101DD000990280939802C031ECE5DE0709F4CFC088
:101DE00008F05BC0C8308CE5D80709F4B6C088F5A8
:101DF000C430ECE5DE0709F4A8C0C0F4C2308CE5BD
:101E0000D80709F49CC0809198028260C330DC45F9
:101E100009F498C080919802909199020E94331B16
:101E20000E94DC1480E0DF91CF91089580919802A8
:101E30008061C630ECE5DE0709F484C08091980229
:101E40008860C730DC4508F47DC0809198028062CC
:101E500079C0CC308CE5D80709F489C070F4809142
:101E600098028C60CA30ECE5DE0709F46BC008F418
:101E700078C0809198028E7F65C0CE308CE5D807FF
:101E800009F479C0809198028B7FCF30DC4508F44B
:101E900059C0809198028F7E55C0CB3FECE5DE079C
:101EA00009F457C030F5C3318CE5D80709F46FC089
:101EB00078F4C131ECE5DE0709F465C0C231DC45D8
:101EC00009F0A8CF0E94DC14809198028F773AC065
:101ED000C5318CE5D80709F462C008F476C080915A
:101EE00099028160CA3FDC4509F094CF8093990242
:101EF00091CFCF3FFCE5DF0709F44DC088F4809116
:101F000099028D7FCD3F9CE5D90781F3809199029D
:101F10008E7FCE3FDC4550F3809199028360E6CFFF
:101F2000C130FDE5DF0709F459C008F444C080E082
:101F3000C230DD4509F06ECF0E94B81B6BCF809197
:101F4000980281608093980265CF809198028460A6
:101F5000F9CF809199028260C9CF80919802806404
:101F6000F1CF0E94DC14809198028068EBCF8091C1
:101F700098028D7FE7CF80919802877FE3CF809191
:101F800098028F7DDFCF809198028F7BDBCF80918D
:101F90009802837FD7CF809199028C7FA7CF8091C1
:101FA000980282FB992790F921E0922790FB82F911
:101FB00090FB83F9C7CF80919902982F90959170EB
:101FC0008E7F892B90FB81F991CF0E94DC14909138
:101FD0009802892F97FB87F98058B4CF81E0ACCF66
:101FE00081E021CFCF93DF93EB0186319C4511F542
:101FF0000E945B1A9A81992399F08A7A91E009F4F8
:1020000090E09093C001811109C089E20E94361AC4
:102010000E94A71A80E0DF91CF91089585E3F6CF63
:102020008091C001811104C089E20E943D1AF0CF65
:1020300085E3FBCF81E0EFCF9093C6018093C5018C
:102040000895E091C501F091C601309721F001900B
:10205000F081E02D099480E00895E091C501F091B0
:10206000C601309799F020911401222359F0209154
:10207000980227FF07C0DC012C9111962C93119731
:1020800025E02C930280F381E02D09940895E091DE
:10209000C501F091C601309739F022E0DC012C93A4
:1020A0000480F581E02D099408952091C3013091B9
:1020B000C4012817390771F09093C4018093C301BC
:1020C000E091C501F091C601309721F00680F781BB
:1020D000E02D099408952091C1013091C201281783
:1020E000390771F09093C2018093C101E091C5015D
:1020F000F091C601309721F00084F185E02D09941C
:1021000008950E94081D6093D8017093D9018093AF
:10211000DA019093DB016093D4017093D501809331
:10212000D6019093D70108950E94081D6093D801AD
:102130007093D9018093DA019093DB016093D00111
:102140007093D1018093D2019093D301089585B704
:10215000806885BF85B7806885BF08950895089514
:102160000C94AE1008950C94B2100E94A7108AE04F
:102170009BE10E946B1D0E94AF100C94B01081E097
:1021800008950C94BF10089508950E94F31C0E94B6
:1021900051070E947B0B0E94861D0E94DA0A0C9454
:1021A000B3108F929F92AF92BF92CF92DF92EF9235
:1021B000FF920F931F93CF93DF93CDB7DEB72A978C
:1021C0000FB6F894DEBF0FBECDBF0E94C3100E94B1
:1021D000C4100E948F0781110E94811058EC852E37
:1021E00051E0952E10E000E0A02E802F0E942807DD
:1021F0006C01F401E190F1904F01E816F90609F441
:1022000061C08091600281FD0E943107C7018C2569
:102210009D25B12CEE24E394F12C9C012E213F212D
:10222000232B09F449C00E94C1108823A9F0BE8263
:10223000AF82CE20DF2081E0CD2809F480E08887BE
:102240000E94FC1C8160782F9A8789874E815F816C
:1022500068858A850E948C11000F111FF801E853D0
:10226000FE4F80819181E826F926F182E0820E946A
:10227000ED0A81110E9494100E94BE090E94211053
:102280009091C7018917A9F10E9421108093C7017D
:102290002A960FB6F894DEBF0FBECDBFDF91CF9167
:1022A0001F910F91FF90EF90DF90CF90BF90AF9074
:1022B0009F908F900C942405B394EE0CFF1CFCE0CF
:1022C000BF12ABCF0F5F1F4F0430110509F08CCF49
:1022D0008FEF89838A831B820E94FC1C8160782F88
:1022E0009D838C8349815A816B818D810E948C11E1
:1022F000BECF2A960FB6F894DEBF0FBECDBFDF91DA
:10230000CF911F910F91FF90EF90DF90CF90BF90F2
:10231000AF909F908F900895DF92EF92FF920F936E
:102320001F93CF93DF93CDB7DEB72B970FB6F894FB
:10233000DEBF0FBECDBF7A878B87F42E052F162FF9
:10234000E72ED82E61110E947B1A1E821D827E2DDF
:10235000EC82DD824F2D502F612F8D2D9E812B968B
:102360000FB6F894DEBF0FBECDBFDF91CF911F91A6
:102370000F91FF90EF90DF900C945217FC01808139
:1023800091810C94081ACF93C82F882309F447C071
:102390008CEF8C0F813AA0F46C2F80910801909102
:1023A00009010E94D11B882329F08C2F0E943D1A1D
:1023B0000E94A71A8C2F0E94361ACF910C94A71A4C
:1023C00080E28C0F883048F4C77081E001C0880F2C
:1023D000CA95EAF70E945E1AF0CFEBE5EC0FE33006
:1023E00040F4F0E0EC56FE4F808190E0CF910C94E9
:1023F0005510E8E5EC0FE73150F4F0E0EE0FFF1F69
:10240000EA59FE4F80819181CF910C946B10C03FAF
:1024100030F08C2F0E94D008CF910C94A309CF915B
:102420000895882361F19CEF980F913A20F40E945F
:102430003D1A0C94A71A90E2980F983050F48770C8
:1024400091E001C0990F8A95EAF7892F0E94641ADA
:10245000F0CF9BE5980F933020F490E080E00C944F
:10246000551098E5980F973120F490E080E00C9497
:102470006B10803F20F00E942A090C94A309089554
:102480001F93CF93DF93182FEB010E94C311209766
:1024900031F4812FDF91CF911F910C9411128FE9AC
:1024A0009FE00197F1F700C000002197F0CF6AE0AC
:1024B00070E0893311F460E570E00C9440128823D9
:1024C00021F00E945E1A0C94A71A0895882321F027
:1024D0000E94641A0C94A71A0895BF92CF92DF92BB
:1024E000EF92FF920F931F93CF93DF936C01D62F40
:1024F000C72FFC011281058102950F700E94541AAA
:10250000E82E8823A1F0E12E112389F08C2F807F03
:10251000803429F080E28D0FE12C883040F082E099
:102520000E94F21A0E94541A91E0E82EE926BC2E6D
:10253000B2949FE0B922EB2DF0E0EB55FA4D0C94EC
:102540002D250C2F0F70C07F11F00295007F1123F5
:10255000A9F0002359F080E28D0F883010F0D111DE
:1025600009C0802F0E945E1A0E94A71A8D2F0E9418
:10257000C31114C0802F0E946E1AF6CF8D2F0E94B7
:102580001112002359F080E28D0F883010F0D11124
:102590002BC0802F0E94641A0E94A71AEB2DE850CE
:1025A000FF0B349720F40E9421100E942405EE2096
:1025B00009F4A3C10E94501A80FD9FC1F601128246
:1025C0000E944A1A0E94D618C6010E949E140E94B8
:1025D0004A1ADF91CF911F910F91FF90EF90DF90FA
:1025E000CF90BF900C94F718802F0E94741AD4CF0C
:1025F000FC2FFF70FF2EC07FC03219F0F29480EFE5
:10260000F822DD2369F0D13049F1112391F1002343
:1026100051F1F601858180FFA9CF8F70858323C09A
:10262000112381F0011106C00E948E1A8F290E9489
:102630005F12B4CF0130C1F70E948E1A8F290E9419
:10264000941AACCF011106C00E949D1A8F2D0E94D2
:102650006612A4CF013009F4A1CFF6CF112329F0DF
:10266000063008F09BCF8F2DE2CF053008F096CFD3
:10267000EDCF002359F3D93309F027C1FFEF27EE3F
:1026800033E0F15020403040E1F700C000008D2FD2
:102690000E94111283CF8C2F86958695837069F0E6
:1026A000813009F07BCF8D2F9C2F9370111102C0C8
:1026B00090E080E00E946B1071CF8D2F9C2F937063
:1026C000111102C090E080E00E94551067CF8D2F5D
:1026D000112329F00E94D0080E94A3095FCF0E9415
:1026E0002A09FACF8C2F837009F041C0111156CFFF
:1026F0004D2F429546954770440F440F0D2F0F7094
:1027000010E030E020E0042E04C0000F111F221F53
:10271000331F0A94D2F760E070E0CB01D4FF0FC002
:102720006FE070E080E090E004C0660F771F881FC4
:10273000991F4A95D2F76095709580959095C695AA
:10274000C695C370602B712B822B932BC23049F03E
:1027500058F4C13019F00E94881820CF0E947618D2
:102760001DCF0E949A181ACF0E94741817CF869511
:10277000112311F08C2F8170882309F40FCF4D2F76
:10278000429546954770440F440F0D2F0F7010E08F
:1027900030E020E0042E04C0000F111F221F331F61
:1027A0000A94D2F760E070E0CB01D4FF0FC06FE075
:1027B00070E080E090E004C0660F771F881F991FCB
:1027C0004A95D2F76095709580959095C695C69577
:1027D000C370602B712B822B932BC23049F058F4BD
:1027E000C13019F00E944D19D9CE0E943B19D6CEA6
:1027F0000E945F19D3CE0E94B018D0CECF701123A3
:1028000029F08C2F0E94D6188D2F11CF8D2F0E946A
:1028100066128C2F0E94F718C1CED23F89F160F466
:10282000D03FC9F0D13F29F1112309F442C0011171
:102830009DCE8C2F8F7121C0D33F39F1D43FA1F7AA
:10284000112369F1CF718C2F0E94D61863E08C2F71
:102850000E94DD1AA3CE112341F0053008F09ECE70
:102860008C2F8F710E941A1999CE063008F096CEDF
:10287000F7CF8C2F8F71112369F20E94D6188ECE5C
:102880008C2F8F711123C9F3C5CF112329F08C2F01
:102890008F710E94C11882CE0E94BC187FCE81E049
:1028A0000E94F21A023008F479CE82E00E94F21AF5
:1028B00075CE002379F0D93341F49FEFE7EEF3E0D2
:1028C0009150E040F040E1F7E0CE8FE39CE90197C2
:1028D000F1F7DBCE8C2F8F719DCF4C2F4F706D2F6A
:1028E000C6010E948C020E94EC1758CE4C2F4F70EC
:1028F0006D2FC6010E942C0551CEDF91CF911F9103
:102900000F91FF90EF90DF90CF90BF9008950F93BD
:102910001F93CF93DF93EC01688179818A810E94B4
:10292000121A8C010E9471190E947318B801CE010D
:10293000DF91CF911F910F910C946D12CF93DF9384
:10294000EC018B819C81892B29F0888199818923D5
:102950008F3F59F4DF91CF910895CE010E948714E3
:10296000CE01DF91CF910C943103CE010E94BE03C2
:102970008111F3CF0E94541A882361F38A8188233E
:1029800049F382E0DF91CF910C94F21A90E080E05D
:102990000E94551090E080E00E946B100E947B1A0C
:1029A0000E948B1A0E94A71A0E94CA0A0C94A309BB
:1029B0000E94441A0C94C6140E946B1A0C94D814EA
:1029C000E92FE295EF70E250EE3070F4F0E0EB5456
:1029D000FA4D0C942D25803F19F020F4883E20F408
:1029E00081E00895843FE1F380E00895883EC0F3DC
:1029F000813FD1F7F5CF93FB882780F908950E9496
:102A0000081A0C94E014CF93DF9300D000D00F92FB
:102A1000CDB7DEB70F900F900F900F900F90DF9112
:102A2000CF910895CF93DF9300D000D000D0CDB7E1
:102A3000DEB726960FB6F894DEBF0FBECDBFDF918E
:102A4000CF9108951F93CF93DF93C091DD0116E0DE
:102A50008091DE018C1304C0DF91CF911F91089506
:102A6000D0E01C9FF0011D9FF00D1124E152FE4F9C
:102A70004081518162817381848195810E94121508
:102A80002196C770E5CF40910F02509110026091DE
:102A900011027091120280911302909114020C9411
:102AA00012151F93CF93DF9380911402807FA9F4B6
:102AB00080911102882389F08091DD01C091DE01AF
:102AC00060910F0270911002A0911202B091130256
:102AD000D62FD72316E0C81304C0DF91CF911F91E2
:102AE000089590E0109711F0DF3F19F40196877078
:102AF000F2CF189F9001199F300D1124F901E15276
:102B0000FE4F41814713F2CF40814613EFCF428100
:102B10004111ECCF438154814A1B5B0B483C51056A
:102B200028F7809114028F70806180931402F9015C
:102B3000EC51FE4F80818F70806180838FE092E046
:102B40000E949E14DF91CF911F910C942215AF9299
:102B5000BF92CF92DF92EF92FF920F931F93CF938A
:102B6000DF93CDB7DEB761970FB6F894DEBF0FBE27
:102B7000CDBF8C0185E0F801DE011D9601900D921C
:102B80008A95E1F7F80140815181E2808FE0C82EFB
:102B900082E0D82E609112027091130261157105C6
:102BA00009F461C190910F0220911002892F8223B4
:102BB0008F3F09F458C1A380B480F0901102F50151
:102BC000E61BF70BFF2009F4FCC080911402382F9C
:102BD000307FE83CF10508F0B2C0311179C0FE2C1D
:102BE000251323C0941321C0E1101FC08F70806192
:102BF000809314020E944315C6010E949E14809186
:102C00001402F80185838F2D61960FB6F894DEBF0C
:102C10000FBECDBFDF91CF911F910F91FF90EF902D
:102C2000DF90CF90BF90AF900895AB2829F0842F0C
:102C300085238F3F09F033C180E0F82FF170DF2E3C
:102C400080FF3CC08091DD012091DE0136E08213DF
:102C500015C04D875E878D859E850E94081A292F95
:102C600022952F702230F0F0243018F59F70F1F08B
:102C7000F8019581907FD1F4D12C1EC090E0389F4F
:102C8000F001399FF00D1124E152FE4F618165136F
:102C900006C06081641303C062816E110FC001968B
:102CA0008770D5CF9F7011F0882331F3805E883014
:102CB00018F3C8010E949E14FD2CA5CFEE2009F444
:102CC000A2CF80911402816080931402F12C9BCFDB
:102CD000251306C0941304C0F801EE2009F48DC03A
:102CE0004D875E878D859E850E94FF14882319F18C
:102CF000EE2009F180911402803270F020910F02D1
:102D00003091100238872F831986BB86AA868C875C
:102D1000CE0107960E949E1486E0F801AFE0B2E073
:102D200001900D928A95E1F70E9451150E9443157A
:102D3000FF24F39468CFC8010E949E14F9CF31118B
:102D400013C07A2DB98AA88A6E2D89890E9403152D
:102D50008FE092E00E949E1486E0F60111928A951F
:102D6000E9F70E944315B2CF25130FC094130DC08D
:102D7000E1100BC0F8018583C8010E949E1486E013
:102D8000F60111928A95E9F73ECF4D875E878D85D2
:102D90009E850E94FF14882371F2EE2061F28091DB
:102DA0001402803208F4B8CF20910F023091100243
:102DB0003A8329831B82BD82AC828E83CE01019629
:102DC000A9CFE83CF10508F041C0FE2CEE2009F443
:102DD000B2CF25132AC0941328C08091140280FD1D
:102DE0001BC0982F907FC1F0F8018583903F31F090
:102DF000982F907F905F8F70892B8583C8010E94E8
:102E00009E1486E0F801AFE0B2E001900D928A9541
:102E1000E1F70E944315F7CE86E0F801AFE0B2E09B
:102E200001900D928A95E1F7EECE4D875E878D85F4
:102E30009E850E94FF1481116FCF809114028160E2
:102E400080931402C8010E949E14DDCE7A2DB98AA7
:102E5000A88A6E2D89890E94031586E0F6011192D9
:102E60008A95E9F7D6CFEE2009F465CF4D875E87C6
:102E70008D859E850E94FF14F82E882309F45BCF70
:102E800086E0F801AFE0B2E001900D928A95E1F79B
:102E90008FE092E00E94BE110E945115BACF81E0EE
:102EA0008E25CBCE1F93CF93DF93CDB7DEB72C9774
:102EB0000FB6F894DEBF0FBECDBF4F83588769872A
:102EC0007A878B879C87CE0107960E94A715882357
:102ED00069F08A859B85892B39F04F815885842F2D
:102EE00085238F3F09F071C016E05FC086E0FE01C8
:102EF0003796DE01119601900D928A95E1F78A8549
:102F00009B85892B89F38F81988589238F3F61F376
:102F10002091DE0130E0C901019687709927409128
:102F2000DD014817190671F40E94DC141092DE01CD
:102F30001092DD0186E0EFE0F2E0DF011D928A955C
:102F4000E9F7D2CF96E0929FD001939FB00D112464
:102F5000A152BE4FFE01319601900D929A95E1F774
:102F60008093DE010E942215BFCF819FC0011124F2
:102F700081529E4F0E94A7158823E9F0E091DD0160
:102F80001E9FF0011124E152FE4F40815181628168
:102F90007381848195810E9412158091DD0190E0FA
:102FA0000196877099278093DD018091DD019091D2
:102FB000DE018913DACF2C960FB6F894DEBF0FBE70
:102FC000CDBFDF91CF911F91089569857A858B855B
:102FD0009C850E94121588CFEF92FF920F931F934A
:102FE000CF93DF938C01892B81F0F12CEE24E394B5
:102FF000E8012196F8018491843770F4843008F058
:103000005FC08130B1F08230A1F1DF91CF911F918B
:103010000F91FF90EF900895853709F44CC008F4A4
:103020003DC09CE7980F903780F78F770E94111270
:1030300049C00E5F1F4FFE01849190E2980F9830B7
:1030400060F48770FE2D01C0FF0F8A95EAF78F2F7D
:103050000E947E1A0E94A71A02C00E94C3118F2DDF
:10306000815030F2EFE9FFE03197F1F700C0000046
:10307000F7CF0E5F1F4FFE01849190E2980F9830BA
:1030800050F48770FE2D01C0FF0F8A95EAF78F2F4D
:103090000E94841ADFCF0E941112E1CF0E5F1F4FF2
:1030A000FE01C491C150D8F28FE99FE00197F1F77A
:1030B00000C00000F7CF0E5F1F4FFE01F490CFCF8E
:1030C0000E94C3118E01CBCF08950C9464180E9406
:1030D0006518609337027093380280933902909399
:1030E0003A020C94C61408950C9467180F931F931A
:1030F00000913702109138022091390230913A0242
:10310000602B712B822B932B1F910F910C946718BE
:103110000F931F93009137021091380220913902CA
:1031200030913A0260237123822393231F910F91E0
:103130000C9467180F931F93009137021091380277
:103140002091390230913A02602771278227932714
:103150001F910F910C9467180C9464180C94AC1880
:103160000E94AE186093330270933402809335024C
:10317000909336020C94C61460E070E0CB010C947E
:10318000B0180F931F9341E050E060E070E08A01B7
:103190009B0104C0000F111F221F331F8A95D2F715
:1031A000C901B8011F910F910C94B0180F931F9390
:1031B00041E050E060E070E004C0440F551F661F1E
:1031C000771F8A95D2F78091330290913402A091B3
:1031D0003502B09136028A019B01082B192B2A2B4C
:1031E0003B2BC901B8011F910F910C94B0180F939C
:1031F0001F9341E050E060E070E004C0440F551FB1
:10320000661F771F8A95D2F7CB01BA01609570953A
:1032100080959095009133021091340220913502EF
:103220003091360260237123822393231F910F91E3
:103230000C94B0180F931F9341E050E060E070E0F1
:1032400004C0440F551F661F771F8A95D2F78091DF
:10325000330290913402A0913502B09136028A0176
:103260009B01082719272A273B27C901B8011F916D
:103270000F910C94B0180F931F930091330210918B
:1032800034022091350230913602602B712B822B53
:10329000932B1F910F910C94B0180F931F930091D3
:1032A00033021091340220913502309136026023AE
:1032B0007123822393231F910F910C94B0180F93C5
:1032C0001F93009133021091340220913502309106
:1032D000360260277127822793271F910F910C9444
:1032E000B01808952CE0929F800D1124982F9770AC
:1032F00041E001C0440F9A95EAF786958695869538
:1033000095E0899FF0011124EB5EFD4F90E080E095
:1033100070E05191DF0111979B01082E02C0369594
:1033200027950A94E2F72170219525272423252744
:103330002C9301968530910561F708952CE0929FBA
:10334000800D1124982F977086958695869525E097
:10335000829FF0011124EB5EFD4F50E040E080E0E1
:10336000219130E0092E02C0369527950A94E2F7A4
:1033700021703327042E01C0220F0A94EAF7822B12
:103380004F5F5F4F4530510559F70895BF92CF9277
:10339000DF92EF92FF920F931F93CF93DF938C01F5
:1033A000C0903302D0903402E0903502F0903602A3
:1033B0008091370290913802A0913902B0913A027F
:1033C000C82AD92AEA2AFB2ACFE1D0E0BC2ED701AD
:1033D000C6010C2E04C0B695A795979587950A94BB
:1033E000D2F780FD0EC0219788F7B12C8B2DDF918D
:1033F000CF911F910F91FF90EF90DF90CF90BF90F2
:103400000895B8018C2F0E943505019761F3EECF26
:10341000CF93DF93EC010E94C619BE01DF91CF91DB
:103420000C9435051F93CF93DF93EB019091DC0152
:10343000992331F0CB01DF91CF911F910C94081AA1
:10344000882379F0CB010E94C619182F682FCE016E
:103450000E947219BE01812FDF91CF911F910C94B0
:103460003505CB010E949E19182FF4CF682F80914B
:103470000801909109010C94511C682F809108015A
:10348000909109010C945C1C8091080190910901B4
:103490000C94671C80913B028595859585950895D0
:1034A00080913B028770089590913B02977081E074
:1034B00009F480E0089580915F02089590915F0281
:1034C000892B80935F020895809590915F029823E5
:1034D00090935F02089510925F02089590915E02AA
:1034E000892B80935E020895809590915E029823C7
:1034F00090935E02089510925E02089590915D028D
:10350000892B80935D020895809590915D029823A8
:1035100090935D02089510925D02089580913C029F
:10352000089508950C94911A90913C02981721F0F7
:1035300080933C020C94921A089580913C02882357
:1035400029F010923C0280E00C94921A0895E091C8
:103550000801F091090180915F028083E0910801E8
:10356000F0910901808190915E02892B8083E09126
:103570000801F0910901808190915D02892B80837F
:1035800090913C02992381F0E0910801F0910901AA
:103590008081892B808380910801909109010E948C
:1035A000BD1B81110E949D1A809108019091090113
:1035B0000C942D1008950C94DA1A98E0899F9001CC
:1035C0001124622B60933B020E94D61880913B022B
:1035D0008595859585950C94DB1A10923B0280E0C9
:1035E0000C94DB1A90913B028095892380933B02D7
:1035F000282F277071F4282F082E000C330B9217F8
:10360000130639F08595859585950E94F7180C94D9
:10361000ED1A089580E008956FEF7FEF90E080E06D
:103620000C947A2590E080E00E94562521E08B3EA4
:103630009E4F09F020E0822F089582E090E00C94E4
:103640004E2583E090E00C944E25CF9384E090E0EB
:103650000E944E25C82F81E290E00E944E25982FAF
:103660008C2FCF910895CF93C92F682F84E090E0DD
:103670000E945C256C2F81E290E0CF910C945C2538
:10368000AB01BC018FE090E00C946E25AB01BC0156
:1036900083E190E00C946E2560E070E0CB010C9427
:1036A000461B60E070E0CB010E94401B0C944C1B59
:1036B0006BEE7EEF90E080E00E947A2560E082E091
:1036C00090E00E945C2560E083E090E00E945C2531
:1036D00010923702109238021092390210923A0278
:1036E00060E084E090E00E945C2560E081E290E090
:1036F0000E945C2560E085E090E00E945C2560E02F
:1037000086E090E00E945C256FEF87E090E00E94E9
:103710005C2540E050E0BA0188E090E00E946E2510
:1037200060E08DE090E00E945C2540E050E0BA014E
:1037300088E190E00E946E2560E087E190E00E94C1
:103740005C2540E050E0BA018CE190E00E946E25DB
:1037500060E080E290E00E945C2540E050E0BA0129
:1037600088E190E00E946E250C94511B0C94581B2C
:10377000682F8EE090E00C945C25FC0132968091DD
:103780001401882321F0809198029EE187FF96E042
:1037900080E0915008F4089521912223D1F38F5FA6
:1037A000F8CF662301F1209114012223F1F020913A
:1037B000980227FF1AC0462F4695469546954E31EA
:1037C00090F4677021E030E002C0220F331F6A9549
:1037D000E2F7840F911DFC01828190E028233923B8
:1037E00081E0232B69F480E00895FC01329608966D
:1037F0002191261721F0E817F907D1F7F4CF81E0DE
:1038000008959C01FC0132969FEF80E0419146179C
:1038100051F09F3F19F4411101C0982F8F5F8630FE
:10382000A9F79F3F09F40895290F311D97FD3A9597
:10383000F90162830895FC013296089621912613BE
:1038400003C0DF0111971C92E817F907B9F7089533
:10385000E62FE695E695E695EE3168F4E80FF92F48
:10386000F11D677021E030E001C0220F6A95EAF790
:103870008281822B82830895E62FE695E695E69570
:10388000EE3170F4E80FF92FF11D677021E030E0A0
:1038900001C0220F6A95EAF72095828128232283AE
:1038A000089520911401222329F02091980227FDE8
:1038B0000C94281C0C94011C20911401222329F043
:1038C0002091980227FD0C943C1C0C941B1CFC01BD
:1038D000329680911401882351F08091980287FFDD
:1038E00006C08EE1DF011D928A95E9F7089586E012
:1038F000F9CF089508950C947A1C80919E0284302B
:1039000049F10E947B1C80E00E9424051092610214
:1039100088E190E020E40FB6F894A89580936000C9
:103920000FBE2093600083B7817F846083BF83B71D
:10393000816083BF7894889583B78E7F83BF0FB6ED
:10394000F894A8958091600088618093600010923F
:1039500060000FBE08950895CF930E94791C0E94C5
:103960008F070E94AB1CC0E08C2F0E942807892B78
:1039700031F4CF5FC430C1F780E0CF91089581E08A
:10398000FCCF08950C94C11C0E94DC140E942110ED
:103990000E9424050C94C21C1F921FB61F92112472
:1039A0008F939F93AF93BF9380916102811113C056
:1039B0008091940290919502A0919602B091970205
:1039C0004196A11DB11D8093940290939502A093FE
:1039D0009602B0939702BF91AF919F918F911F90E4
:1039E0001FBE1F90189582E084BD93E095BD9AEFAD
:1039F00097BD80936E0008952FB7F894809194023C
:103A000090919502A0919602B09197022FBF0895D0
:103A10002FB7F8946091940270919502809196026C
:103A2000909197022FBF08959C014FB7F894809111
:103A3000940290919502A0919602B09197024FBF87
:103A4000821B930B089578941F921FB61F92112426
:103A50008F939F93AF93BF9380919402909195021F
:103A6000A0919602B09197020196A11DB11D80937D
:103A7000940290939502A0939602B0939702BF91FF
:103A8000AF919F918F911F901FBE1F90189581E05D
:103A90008093E00080E28093D8001092C9008FE10B
:103AA0009EE40197F1F700C0000087E090EBDC0195
:103AB0008093A7029093A802A093A902B093AA02B0
:103AC00088E19CE00FB6F894A895809360000FBE43
:103AD00090936000FFCF9093A7018093A601089573
:103AE0000C94680B0E948F078FE39CE90197F1F714
:103AF00000C000000E948F0780E00E94280780FF1E
:103B000004C00E94701D0C94471D08950E94121B52
:103B1000811102C00E94B61B0E941D1B809360028F
:103B20000E94251B90939902809398020E94211B6A
:103B3000682F70E090E080E00E947418609133027A
:103B40007091340280913502909136020C94AE1837
:103B5000809182020895CF93DF9300D00F92CDB76A
:103B6000DEB790919E02943011F589837B836A833E
:103B70009093E9008FEF9091E800815095FD06C089
:103B800095ED9A95F1F700008111F5CF8091E8004D
:103B900085FF0DC050E040E063E070E0CE0101968B
:103BA0000E9439208091E8008E778093E8000F9082
:103BB0000F900F90DF91CF910895BC0184E00C9499
:103BC000AB1DBC0183E00C94AB1D9C0184E0809391
:103BD000E9009FEF8091E800915085FD06C085EDDA
:103BE0008A95F1F700009111F5CF8091E80085FFEB
:103BF0000CC050E040E066E070E0C9010E9439204E
:103C00008091E8008E778093E8000895CF93DF934A
:103C1000EC01809114018823B1F18091980287FF13
:103C200032C060E284E08093E9008FEF9091E80079
:103C3000815095FD06C095ED9A95F1F70000811130
:103C4000F5CF8091E80085FF1BC08091140170E0E2
:103C500050E040E0811104C050E040E068E070E0D6
:103C6000CE010E9439208091E8008E778093E80091
:103C700080E2FE01A2E6B2E001900D928A95E1F7A2
:103C8000DF91CF91089568E081E0CDCFCF93FC0123
:103C9000603221F580919E02843001F5C091E900E7
:103CA000CF702091EC00922F917020FD90E8C92BED
:103CB00082E08093E9008091E80080FF0CC050E032
:103CC00040E060E270E0CF010E9439208091E8007E
:103CD0008E778093E800CF70C093E900CF9108956C
:103CE00080919D02811109C00E9418220E947522B4
:103CF0008091E20084608093E200089510929D021A
:103D0000089508950895089542E061EC81E00E94CD
:103D1000942142E261EC84E00E94942142E261EC51
:103D200082E00E94942142E260EC83E00C949421B2
:103D30008091A002833009F461C030F48130D1F168
:103D4000823009F49DC008958A3009F489C08B300F
:103D500009F46FC0893009F050C080919F02813210
:103D600009F04BC08091A3029091A402009719F032
:103D7000029709F042C08091E800877F8093E800B5
:103D80008091E80082FF35C09091F3008091F200AD
:103D9000029729F48091F1008B7F813021F480918A
:103DA000F100809382028091E8008B778093E80095
:103DB0000C94C82180919F02813AF9F48091E80027
:103DC000877F8093E8008091A3029091A402892BC1
:103DD00061F460E282E692E070E00E94D720809178
:103DE000E8008B778093E800089560E090E080E041
:103DF000F3CF80919E028111C3CF089580919F02DD
:103E0000813AD9F78091A3029091A402892BA9F756
:103E10008091E800877F8093E8008091E80080FF30
:103E2000FCCF809114018093F1008091E8008E779F
:103E3000BDCF80919F02813201F78091A3029091C2
:103E4000A402892BD1F68091E800877F8093E80057
:103E50000E94C8218091A102809314010C94DC146B
:103E600080919F02813249F68091E800877F80939C
:103E7000E8000E94C8218091A202809383020895E5
:103E800080919F02813A09F0B8CF8091E800877F46
:103E90008093E8008091E80080FFFCCF809183024E
:103EA000C2CFCDB7DEB7A0970FB6F894DEBF0FBE76
:103EB000CDBF84B7877F84BF0FB6F894A895809153
:103EC0006000886180936000109260000FBE80E8FF
:103ED00090E00FB6F89480936100909361000FBE5C
:103EE0000E94B5100E9418220E9475228091E20063
:103EF00084608093E20078940E94FE240E94C510A2
:103F00008AE091E00E941C1013E080919E028530AF
:103F1000C9F00E94D11080919E028430D1F00E949D
:103F2000C3100E94C410F1CF0E947D1C80919C029E
:103F3000882341F00E94AC1C882321F00E9423209A
:103F40000E94DC1480919E02853071F30E94C41C93
:103F5000E0CF1093E9008091E80082FFE0CF8091EC
:103F6000E80090E085FF09C050E040E060E270E0CA
:103F7000CE0101960E94882091E08091E8008B7725
:103F80008093E800992359F260E2CE0101960E94E5
:103F9000CA0BC5CF0C94CC1F292F332723303105F2
:103FA00021F168F42130310509F443C02230310594
:103FB00009F444C090E080E030E020E026C02132E7
:103FC000310551F122323105A9F76330710590F7BF
:103FD000FB01EE0FFF1FE656FE4F2081318169562F
:103FE0007E4FFB01808190E010C0992781309105C0
:103FF00081F0009729F00297E9F6ECEDF2E002C0BB
:10400000ECEFF2E0849190E09F01FA01318320838C
:104010000895E8EEF2E0F6CF6330710558F6660FCA
:10402000771FFB01E056FE4F2081318189E090E04F
:10403000ECCF82E190E02BE533E0E7CF8BE590E039
:1040400020E033E0E2CF80E189BD82E189BD09B49F
:1040500000FEFDCF8091D8008F7D8093D8008091A5
:10406000E00082608093E0008091E00081FDFCCF61
:104070000895AF92BF92CF92DF92FF920F931F935A
:10408000CF93DF936C01EB018A010E94E721F82EA8
:10409000811123C00115110539F0F801808191814A
:1040A000C81BD90BC80ED91EB12CA12C2097A9F082
:1040B0008091E80085FD22C08091E8008E77809392
:1040C000E80001151105A1F0F80180819181A80E89
:1040D000B91EB182A08285E0F82E8F2DDF91CF919D
:1040E0001F910F91FF90DF90CF90BF90AF900895F8
:1040F0000E94E7218823D1F2F82EEFCFF6018191BB
:104100006F018093F1002197FFEFAF1ABF0ACECF66
:10411000AF92BF92CF92DF92FF920F931F93CF93F4
:10412000DF936C01EB018A010E94E721F82E8111D7
:1041300023C00115110539F0F80180819181C81B58
:10414000D90BC80ED91EB12CA12C2097A9F08091B3
:10415000E80085FD22C08091E8008B778093E8001D
:1041600001151105A1F0F80180819181A80EB91EF9
:10417000B182A08285E0F82E8F2DDF91CF911F9123
:104180000F91FF90DF90CF90BF90AF9008950E9465
:10419000E7218823D1F2F82EEFCF8091F100F601CC
:1041A00081936F012197FFEFAF1ABF0ACECFFC01B9
:1041B0008091A5029091A60286179707A0F061153D
:1041C000710529F49091E8009E779093E80090E0C3
:1041D0006115710551F4911108C08091E80082FFCA
:1041E00034C080E00895BC01F2CF80919E02882304
:1041F000C1F18530C1F18091E80083FD30C080912C
:10420000E80082FDEACF8091E80080FFE1CF809155
:10421000F3002091F200382F6115710519F0283054
:10422000310558F091E02830310509F090E02091F7
:10423000E8002E772093E800CBCF81918093F100A6
:10424000615071092F5F3F4FE7CF80919E02882315
:1042500041F0853041F08091E80083FFBECF81E0DE
:10426000089582E0089583E00895FC018091A502FD
:104270009091A60286179707A0F06115710529F4A1
:104280008091E8008E778093E80090E061157105D9
:1042900051F4911108C08091E80082FF35C080E0A0
:1042A0000895BC01F2CF80919E028823C9F1853028
:1042B000C9F18091E80083FD31C08091E80082FD62
:1042C000EACF8091E80080FFE1CF8091F300209158
:1042D000F200382F6115710519F02830310558F0BA
:1042E00091E02830310509F090E08091E8008E7768
:1042F0008093E800CBCF84918093F1003196615098
:1043000071092F5F3F4FE6CF80919E02882341F0D5
:10431000853041F08091E80083FFBDCF81E00895B2
:1043200082E0089583E00895982F973028F08F70E9
:104330008093E90081E008959093E900242F762F7F
:1043400050E0981731F07091EC002091ED00509101
:10435000F00021FD02C09F5FE8CF3091EB003E7F6F
:104360003093EB003091ED003D7F3093ED003091C4
:10437000EB0031603093EB007093EC002093ED0084
:104380005093F0002091EE0027FDE5CF80E00895E6
:1043900080919F0287FF13C08091E80082FF06C0D2
:1043A0008091E8008B778093E80004C080919E02A2
:1043B0008111F2CF089580919E028823D9F38091D4
:1043C000E80080FFF8CF8091E8008E77ECCF209155
:1043D000E4003091E50095E6A9012091EC00822FE0
:1043E000817020FF06C08091E80080FF06C080E059
:1043F00008952091E80022FD1AC080919E02882332
:1044000089F0853089F08091EB0085FD0FC0209107
:10441000E4003091E50042175307F9F29150E1F6BC
:1044200084E0089582E0089583E0089581E008958E
:104430000E9486220E948E22E0EEF0E08081816060
:104440008083E8EDF0E080818F77808319BCA7ED51
:10445000B0E08C918E7F8C9380818F7E80831092D0
:104460009D0208950F931F93CF93DF930E9486229E
:104470000E948E22C8EDD0E088818F778883888162
:104480008068888388818F7D888319BC10929E0202
:1044900010929A0210929C0210929B0200EE10E081
:1044A000F80180818B7F808388818160888342E0EE
:1044B00060E080E00E949421E1EEF0E080818E7F58
:1044C0008083E2EEF0E0808181608083808188607B
:1044D0008083F80180818E7F8083888180618883DA
:1044E000DF91CF911F910F910895E8EDF0E0808169
:1044F0008F7E8083E7EDF0E080818160808384E0BF
:1045000082BF81E080939D020C943222E8EDF0E0BE
:1045100080818E7F80831092E20008951092DA00ED
:104520001092E10008951F920F920FB60F9211247E
:104530002F933F934F935F936F937F938F939F93AB
:10454000AF93BF93EF93FF938091E10082FF0BC085
:104550008091E20082FF07C08091E1008B7F809311
:10456000E1000E94FD248091DA0080FF19C0809153
:10457000D80080FF15C08091DA008E7F8093DA002A
:104580008091D90080FF96C080E189BD82E189BD1C
:1045900009B400FEFDCF81E080939E020E94701E50
:1045A0008091E10080FF19C08091E20080FF15C07A
:1045B0008091E2008E7F8093E2008091E200806132
:1045C0008093E2008091D80080628093D80019BC6B
:1045D00085E080939E020E94821E8091E10084FF0C
:1045E0002BC08091E20084FF27C080E189BD82E179
:1045F00089BD89B5982F917080FFFBCF8091D8003D
:104600008F7D8093D8008091E1008F7E8093E100C0
:104610008091E2008F7E8093E2008091E2008160D1
:104620008093E20080919A02882309F449C084E0D3
:1046300080939E020E94831E8091E10083FF29C027
:104640008091E20083FF25C08091E100877F809305
:10465000E10082E080939E0210929A028091E10034
:104660008E7F8093E1008091E2008E7F8093E20054
:104670008091E20080618093E20042E060E080E0AF
:104680000E9494218091F00088608093F0000E9445
:10469000811EFF91EF91BF91AF919F918F917F917B
:1046A0006F915F914F913F912F910F900FBE0F909F
:1046B0001F90189519BC10929E020E947E1E70CF0A
:1046C0008091E30087FD93E090939E02B3CF1F9209
:1046D0000F920FB60F9211242F933F934F935F9336
:1046E0006F937F938F939F93AF93BF93CF93DF93FA
:1046F000EF93FF93D091E900DF708091EC00C82F19
:10470000C17080FDC0E81092E9008091F000877FC1
:104710008093F00078940E94AB231092E90080917E
:10472000F00088608093F000CD2BCF70C093E9003B
:10473000FF91EF91DF91CF91BF91AF919F918F91B9
:104740007F916F915F914F913F912F910F900FBE8D
:104750000F901F9018951F93CF93DF93CDB7DEB7BF
:10476000AA970FB6F894DEBF0FBECDBF8FE992E0D7
:104770002091F100FC012193CF01F2E0873A9F07DD
:10478000B9F70E94981E8091E80083FF1EC18091B6
:104790009F029091A0029A3008F017C1E92FF0E033
:1047A000ED53FA4D0C942D25803899F0823809F09C
:1047B0000CC18091A3028F70873008F006C18093EE
:1047C000E9008091EB0085FB882780F91092E900D1
:1047D00006C080919B0290919C0291118260909101
:1047E000E800977F9093E8008093F1001092F10029
:1047F0008091E8008E77E5C0882309F4D3C0823029
:1048000009F0E3C08091A1028111D6C08091A3027A
:104810008F702FEF280F263008F0D7C08093E90063
:104820002091EB0020FFC8C0933031F48091EB0061
:1048300080628093EB00C0C09091EB0090619093F8
:10484000EB0021E030E001C0220F8A95EAF72093C7
:10485000EA001092EA008091EB008860EACF8111B3
:10486000B4C01091A1021F778091E3008078812B62
:104870008093E3008091E800877F8093E8000E94A6
:10488000C8218091E80080FFFCCF8091E300806820
:104890008093E30082E0111183E080939E0295C033
:1048A0008058823008F091C08091A1029091A202BC
:1048B0008C3D23E09207A1F583E08A838AE2898315
:1048C0004FB7F894DE01139620E03EE051E2E32F6B
:1048D000F0E050935700E49120FF03C0E295EF70A1
:1048E0003F5FEF708E2F90E0EA30C0F0C7968D9357
:1048F0009D932F5F243159F74FBF8091E800877F48
:104900008093E8006AE270E0CE0101960E94D72011
:104910008091E8008B778093E80057C0C096E7CF7E
:104920006091A3027091A402AE014F5F5F4F0E949D
:10493000CA1FBC01892B09F448C09091E800977FF9
:104940009093E80089819A810E943521E1CF8038D7
:10495000E1F58091E800877F8093E80080919A02DA
:104960008093F10045CF811130C09091A102923027
:1049700060F58091E800877F8093E80090939A0229
:104980000E94C82180919A02882311F084E005C01A
:104990008091E30087FDFACF81E080939E020E9420
:1049A000841E13C08091A102813079F481E093309C
:1049B00009F080E080939C021092E9008091E80069
:1049C000877F8093E8000E94C8218091E80083FFE0
:1049D0000AC08091E800877F8093E8008091EB0017
:1049E00080628093EB00AA960FB6F894DEBF0FBEEC
:1049F000CDBFDF91CF911F9108950895CF938091FE
:104A00009E028823A1F0C091E900CF709091EC0044
:104A1000892F817090FD80E8C82B1092E900809169
:104A2000E80083FD0E94AB23CF70C093E900CF91D3
:104A3000089597FB072E16F4009407D077FD09D050
:104A40000E943A2507FC05D03EF4909581959F4F32
:104A50000895709561957F4F0895EE0FFF1F0590A3
:104A6000F491E02D099469279627692778278727ED
:104A700078270895AA1BBB1B51E107C0AA1FBB1FC3
:104A8000A617B70710F0A61BB70B881F991F5A95DA
:104A9000A9F780959095BC01CD010895F999FECFB5
:104AA00092BD81BDF89A992780B50895A8E1B0E03C
:104AB00042E050E00C948225262FF999FECF92BD5A
:104AC00081BDF89A019700B4021639F01FBA20BDD3
:104AD0000FB6F894FA9AF99A0FBE08950396272F05
:104AE0000E945D250E945C25252F0E945D25242FB4
:104AF0000C945D250196272F0E945D250C945C2562
:104B0000DC01CB01FC01F999FECF06C0F2BDE1BD8D
:104B1000F89A319600B40D9241505040B8F708957C
:104B2000F894FFCFDC0BE90B100C1C0C270C320C9B
:104B3000350C350C350C350C350C380C3C0C440C54
:104B4000510C5E0C610C640C710CA112A112F812D4
:104B5000F8124B136713CE12CE127213FE130D14FC
:104B60000D146D14CE12CE127614EB14EB14F41453
:104B7000F414F614F414F414F414EB14EB14FB14FE
:104B8000F414F414FB14D423FC23E524FC23E524BF
:0A4B90002F245024E524A724B324A9
:104B9A002808641E140A321E3D02A81D061EE51DC1
:104BAA00E11DDD1D01E200E900EA00B500B600B72B
:104BBA0000CD008301CC008A0192019401210223D5
:104BCA000224022502260227022A02B300B4006F39
:104BDA00007000818283F095F4F5F6F76766363542
:104BEA0034949293F13700FF0100010000FFFF00A7
:104BFA0000010001FF00E200E900EA00B500B6008A
:104C0A00B700CD008301CC008A01920194012102F0
:104C1A00230224022502260227022A02B300B40034
:104C2A006F0070008182834022B645046D038F03B2
:064C3A0012032B034B03E3
:00000001FF
